:100000002BC04FC04EC04DC04CC0CCC34AC049C02D
:1000100048C047C046C045C00FC443C042C0005E90
:10002000BCE2613FDD83C29C7E20A3FD1F41009D99
:1000300023BE46DB65F88C11AF32CA57E974010361
:100040000000040000000000380002020202020268
:10005000010204081020260411241FBECFE5D2E0BF
:10006000DEBFCDBF21E0A6EDB0E001C01D92A632FB
:10007000B207E1F710E0A0E6B0E0E0ECF6E102C084
:1000800005900D92A63DB107D9F710E0CCE2D0E083
:1000900003C02197FE01F5D8CB32D107D1F72ED47A
:1000A0000DCBAECFC4988FB980E48EB98BE1769931
:1000B00002C08DB9FCCF8FB16FB980E48EB98BE1EE
:1000C000769902C08DB9FCCF8FB1C49A08953FB71D
:1000D000F8948091DF009091E000A091E100B09150
:1000E000E20022B708B601FE05C02F3F19F00196C5
:1000F000A11DB11D3FBFBA2FA92F982F8827BC0182
:10010000CD01620F711D811D911D43E0660F771FA8
:10011000881F991F4A95D1F70895DC0180E061504E
:1001200090F09D919827E92FEF70F0E0E25EFF4F8D
:100130002491E92FE295EF70F0E0E25DFF4FE4914A
:10014000822F8E27ECCF0895862F60E0ABCF0895E5
:100150001F93CF93DF93EC01E881F9810480F5814F
:10016000E02D0995892B89F06DE0CE01EDDF182F88
:1001700060E0CE01E9DFC82F612F8DE893DF8C2F7F
:1001800090E0DF91CF911F9108958FEF9FEFF9CF0E
:10019000CF93DF93EC01E881F9810480F581E02DB4
:1001A0000995892B61F08C859D8501969D878C87AB
:1001B00060E0CE01C9DF90E0DF91CF9108958FEF2D
:1001C0009FEFFACFCF93DF93EC0163E1BDDF90E0C7
:1001D0002C853D85821B930BDF91CF910895CF92A3
:1001E000DF92FF920F931F93CF93DF936B01EA018E
:1001F00062E2AADFF82E90E09C012C0F3D1F2F3FFA
:10020000310529F020F0CFEFD0E0C81BD90B8601D3
:10021000CC0EDD1E0C151D0531F0F80161918F012A
:1002200080E840DFF7CF6C2F6F0D82EA3BDFCE0115
:10023000DF91CF911F910F91FF90DF90CF900895A4
:10024000CF93DF931F92CDB7DEB76983DC01ED91C9
:10025000FC910280F381E02D41E050E0BE016F5F30
:100260007F4F09950F90DF91CF91089587FF09C0C7
:100270008F7771F1813071F1823071F1833071F1DA
:100280008FEF90E0FC01E25CFF4F3491FC01E05BFA
:10029000FF4F2491FC01E65BFF4FE491EE23B9F0A0
:1002A000332329F03130E1F48AB58F778ABDF0E04D
:1002B000EE0FFF1FEC5BFF4FA591B4918FB761115B
:1002C00020C0F894EC9120952E232C938FBF089595
:1002D00085E0D7CF82E0D5CF84E0D3CF83E0D1CF04
:1002E000323019F48AB58F7DE1CF333021F480B7F5
:1002F0008F7D80BFDCCF3430D1F68CB58F7D8CBD47
:10030000D6CFF894EC912E2BE0CFDC012C911196F6
:10031000ED91FC91F8948181822B81839281322F1F
:100320003095932392838181832381839081789474
:10033000E7E0F0E03197F1F7922381E009F480E003
:100340000895FC0190810180F281E02D292F2095F4
:1003500060FF10C0F8948281822382838181892B7F
:1003600081838281982B9283789488E090E0019732
:10037000F1F70895F8948281822382838181892B09
:100380008183AAE0B0E01197F1F78281982B9283E4
:1003900078940895DF92EF92FF920F931F93CF937B
:1003A000DF93EC01D62EE42E08E010E0FF24F39456
:1003B00061E08D2D8F2109F460E0CE01C2DFFF0CDA
:1003C00001501109A9F7E11010C0F894E981FA81F0
:1003D00091818881809589238183E981FA81928145
:1003E00088818095892382837894DF91CF911F91B2
:1003F0000F91FF90EF90DF900895EF92FF920F938F
:100400001F93CF93DF938C017B0140E065E5C2DF52
:10041000E70188E0E80EF11C699140E0C801BADF0D
:10042000CE15DF05C9F7DF91CF911F910F91FF9096
:10043000EF900895FC0190810180F281E02DF89405
:100440008181292F20958223818378943DE7315043
:1004500011F180818923D9F3F894828182238283E8
:100460008181892B81837894A2E7B0E01197F1F71D
:10047000F894818182238183ACE0B0E01197F1F799
:100480008081982381E009F080E07894E1E6F0E053
:100490003197F1F7089580E008956F927F928F92DF
:1004A0009F92AF92BF92CF92DF92EF92FF920F9303
:1004B0001F93CF93DF938C01EB018091EE0090911D
:1004C000EF00B8DF8823D9F1B8018091EE00909158
:1004D000EF0093DF40E06EEB8091EE009091EF0033
:1004E00059DF7E016E0189E0C80ED11C8E01A090FB
:1004F000EE00B090EF0088E0882E912C712C6624DD
:100500006394C50102DF81117628660CE1E08E1A42
:100510009108B9F7F80171928F01CE16DF0639F70D
:100520008091EE009091EF0085DF813041F4F7017A
:1005300081917F01811105C0E017F107C1F790E0BB
:1005400007C068E0CE01E9DD91E028852813F7CFE8
:10055000892FDF91CF911F910F91FF90EF90DF9046
:10056000CF90BF90AF909F908F907F906F900895A5
:10057000BF92CF92DF92EF92FF920F931F93CF9390
:10058000DF93EC01B62EC72E8D85811104C0CE01FC
:1005900051DF81110EC01B861D861C8680E0DF9115
:1005A000CF911F910F91FF90EF90DF90CF90BF9070
:1005B000089540E060EFCE01EDDE01E0E12CD12CAA
:1005C00011E0CE01A2DEF82ECE019FDE91E0F912FD
:1005D00018C0813099F51134F0F2DB86D11002C0D9
:1005E00081E08D878B818823B1F22396EB2DFC2D42
:1005F000CF01089629912193E817F907D9F781E0EF
:10060000CECFEE2DF0E0F8120FC08B851817A0F4B6
:10061000DE01AE0FBF1F13968C91802379F4F12C6D
:10062000193008F41C87D12EEC0FFD1F8381902F09
:100630009095892383830AC08113F1CFFE01EE0DCB
:10064000F11D8381802B8383FF24F3946F2DCE01D2
:1006500078DE1F5F000F11F4E39401E087E08E1550
:1006600008F0AFCFB8CF0F931F93CF93DF93EC0178
:1006700088819981009759F02A813B812617370795
:1006800030F081E0DF91CF911F910F9108958B01A0
:100690006F5F7F4F4DD7009759F0998388831B83F5
:1006A0000A832C813D81232B61F7FC011082E9CF65
:1006B00080E0E8CFEF92FF920F931F93CF93DF93E9
:1006C000FB0101900020E9F73197E61BF70BD1F011
:1006D0007B018C01DC011496CD91DC91CE0FDF1FE4
:1006E000BE01C1DF882379F0F80120813181848146
:1006F0009581B701820F931FDAD7D8011596DC9345
:10070000CE93149781E0DF91CF911F910F91FF90CD
:10071000EF900895CF92DF92EF92FF920F931F9385
:10072000CF93DF9300D000D000D01F92CDB7DEB7BB
:100730007C01CB014AE09E012F5F3F4F6901B90167
:10074000F8D3F60101900020E9F73197EC19FD0983
:10075000C9F0D70114960D911C910E0F1F1FB801FF
:10076000C70181DF882379F0F701208131818481FD
:100770009581B601820F931F9AD7D70115961C93C6
:100780000E93149781E027960FB6F894DEBF0FBE44
:10079000CDBFDF91CF911F910F91FF90EF90DF9030
:1007A000CF9008951F920F920FB60F9211242F939E
:1007B0003F938F939F93AF93BF938091DB00909172
:1007C000DC00A091DD00B091DE003091DA0026E07F
:1007D000230F2D3768F129E8230F0396A11DB11DC2
:1007E0002093DA008093DB009093DC00A093DD007F
:1007F000B093DE008091DF009091E000A091E100D5
:10080000B091E2000196A11DB11D8093DF0090938D
:10081000E000A093E100B093E200BF91AF919F91FF
:100820008F913F912F910F900FBE0F901F901895B1
:100830000296A11DB11DD4CF1F920F920FB60F9239
:1008400011240F900FBE0F901F9018958FB7F8943A
:10085000BB98C3988FBFECEFF0E088E0808386E31D
:1008600090E0928381831386158614861286118602
:10087000108617821682158214821382A5EEB0E0CC
:1008800056961C921E92559711961C9211971A9685
:10089000FC93EE93199717961C92179718961C9233
:1008A00018971C9289E013968C93139781E0149605
:1008B0008C93149715968C93159716968C9389E0C4
:1008C00090E09093E4008093E300EAE0F1E013828B
:1008D000128280E790E091838083158614861786C4
:1008E0001686108A118A128A138A158A148A178A20
:1008F000168A14821582168217820895CF93DF9389
:10090000CDB7DEB761970FB6F894DEBF0FBECDBF8F
:1009100083E08ABD82E083BF789489B7826089BF13
:1009200080E48CBD8FEF8DBD84EC80BF83E886B9F9
:10093000E091EE00F091EF00138615861486128682
:1009400011861086178216821582148213821092E5
:10095000EC001092ED0011E0BE01665F7F4F8091C8
:10096000EE009091EF0004DE882309F473C067E085
:10097000CE010A96D2DB99898913EECF8091EC00E3
:100980008F5F8093EC008A85883231F008F048C090
:10099000803111F0823201F78091ED008F5F8093FA
:1009A000ED008091E500811123C08091EE009091CF
:1009B000EF0040DDBE01665F7F4F8091EE009091B9
:1009C000EF001BDD40E064EB8091EE009091EF00C2
:1009D000E1DC8091EE009091EF0097DC082F809190
:1009E000EE009091EF0026DD011102C01093E500AA
:1009F0008A85803101F1BE016F5F7F4FCE010A967B
:100A00004CDD882359F08D819A859B3311F487FD45
:100A100012C08F3391F058F48F31C1F080E00EC0D6
:100A20008B3309F4B9CF823409F096CFB5CF8F3527
:100A300079F08F3799F78CE001C08AE09091E80057
:100A4000981708F089CF8093E80086CF89E0F6CF29
:100A50008BE0F4CFBA9AB99AB898BC9A62E48AE06B
:100A600091E072DB823109F0ABC060E881E81ADB0B
:100A700080E09FE9AEE8B8E180931A0190931B01F2
:100A8000A0931C01B0931D0167E686E80BDB60E0D4
:100A900087E808DB60E088E805DB60E08EE802DBE1
:100AA00060E08FE8FFDA6CE08AE091E04DDB682FD0
:100AB00063608CE8F7DA64E086EAF4DA64E88DECE7
:100AC000F1DA6BE28BE8EEDA6FE889E8EBDA61E8FD
:100AD00081E8E8DA01E01FEF8091EE009091EF00ED
:100AE000A9DC40E06CEC8091EE009091EF0052DCCC
:100AF0004091E50064E48091EE009091EF004ADCC3
:100B00008FB7F894C090DB00D090DC00E090DD005F
:100B1000F090DE008FBF8091E900882321F1809161
:100B2000EA00882309F44DC08091E500811149C095
:100B30008091EE009091EF00E8DB8130A1F02FB7BB
:100B4000F8948091DB009091DC00A091DD00B091E1
:100B5000DE002FBF8C199D09AE09BF098E3E924061
:100B6000A105B10528F3E091EE00F091EF001386A6
:100B700015861486128611861086178216821582B3
:100B800014821382BE01665F7F4F8091EE009091C8
:100B9000EF00EEDC882379F067E0CE010A96BDDA3B
:100BA0009989891308C0BE016F5F7F4FCE010A96F5
:100BB00074DC811145C01093D9000093D8009EC009
:100BC000FFCFE091E800E9508EEE92E0E33038F498
:100BD000F0E0EE0FFF1FEA59FF4F808191816C0119
:100BE000F12CE12C8091E600882321F060E08091D7
:100BF000E7003CDB6CDA5B01C114D104E104F104D1
:100C000099F48091E600882309F4ADCF61E08091EA
:100C1000E7002CDBA8CF31E0C31AD108E108F108C6
:100C200088E1A81A8CEFB80A52DA6A197B09683E83
:100C3000734010F3C114D104E104F10461F7DCCF77
:100C40002A8160E070E0CB0127FF04C060E070E023
:100C500088EF9FEF3A8589803B3309F0DAC04D81F8
:100C600047FFD7C080FCA7CFC82CD12CF12CE12C9A
:100C7000E3E0CC0CDD1CEE1CFF1CEA95D1F746012D
:100C80005701F0EE8F22F7E09F22AA24BB24C22E48
:100C9000D12CF12CE12CFBE0CC0CDD1CEE1CFF1C5C
:100CA000FA95D1F7C828D928EA28FB286C297D298C
:100CB0008E299F296138F4EE7F07FFEF8F079F078A
:100CC0000CF479CF65D120E030E040E05CE3BFD1A7
:100CD0006B017C0120E030E04EEF52EC53D18823D1
:100CE00009F469CF20E030E048EC52E4C701B601D6
:100CF000AED1CDD27093D9006093D800E090D600E9
:100D0000F090D7002FEFE21AF20AF092D700E092AB
:100D1000D60061E08AE091E017DA83708330F1F069
:100D200062E18AE091E010DA83FF03C068E082E9C3
:100D3000B9D961E881E8B6D9109219011092180169
:100D40006DE18AE091E000DA682F6E7F8DE9AAD923
:100D500060E08DE8A7D960E082EAA4D91A821982FE
:100D60001C821B821E821D8267E270E0CE0101960A
:100D70007ADC29813A81811193C02115310511F066
:100D8000C9014DD31A8219821E821D821C821B82C8
:100D9000B701CE010196BEDC64EA70E0CE01019697
:100DA00089DC68ED7EE0CE010196B4DC62EB70E098
:100DB000CE0101967FDC6091D8007091D900CE0100
:100DC0000196A8DC6EEB70E0CE01019673DC65E065
:100DD0007DE0CE0101969EDC67EC70E0CE010196CD
:100DE00069DCF12CE12C89819A812D813E81E2160A
:100DF000F30608F05EC060E0009721F08E0D9F1DA5
:100E0000FC0160818AE091E01BDAFFEFEF1AFF0A34
:100E1000EACFC22ED12CDC2CCC24DD0CDD0CDD0C79
:100E2000912C53E0880C991C5A95E1F7C828D928D1
:100E30000D2C000CEE08FF086C297D298E299F29B6
:100E4000303109F037CF2885222309F433CF6B01E5
:100E50007C0183E0CC0CDD1CEE1CFF1C8A95D1F7D5
:100E600030E8C32237E0E322FF2480E2C81AD10829
:100E7000E108F108622F70E08F81FB01E81BF109A6
:100E8000CF019695982F882797958795D3D1072ED0
:100E9000000C880B990B6C0D7D1D8E1D9F1D0ACFBC
:100EA00087E290E09E838D836CE770E0C901FFD3F9
:100EB0006FCFB5D263E881E8F5D862E18AE091E0CE
:100EC00043D983FFFACF68E082E9ECD860E881E893
:100ED000E9D886B186B92091E3003091E4002A3048
:100EE000310524F5822F87702830310504F58061A3
:100EF00094B7977F94BF91B5986191BD81BD81B53D
:100F0000806481BD85B7877E806185BF85B780623B
:100F100085BF789485B7806285BF889585B78F7DBA
:100F200085BF85B78F7D85BF379AD6CD81E080623A
:100F3000DECFBB27FB015527AA27880F991FAA1FC1
:100F4000A41710F0A41B83955051B9F7A05DAA33E4
:100F500008F0A95DA193009779F7B111B1931192AF
:100F6000CB0100C0DC01FC01672F71917723E1F711
:100F7000329704C07C916D9370836291AE17BF0766
:100F8000C8F3089540D008F481E00895E89409C0BA
:100F900097FB3EF490958095709561957F4F8F4FAC
:100FA0009F4F9923A9F0F92F96E9BB279395F695C2
:100FB000879577956795B795F111F8CFFAF4BB0F40
:100FC00011F460FF1BC06F5F7F4F8F4F9F4F16C0A4
:100FD000882311F096E911C0772321F09EE8872F2E
:100FE000762F05C0662371F096E8862F70E060E0EA
:100FF0002AF09A95660F771F881FDAF7880F969563
:10100000879597F90895990F0008550FAA0BE0E806
:10101000FEEF16161706E807F907C0F012161306BA
:10102000E407F50798F0621B730B840B950B39F4FA
:101030000A2661F0232B242B252B21F408950A2660
:1010400009F4A140A6958FEF811D811D08950AD056
:1010500080C071D028F076D018F0952309F062C0D6
:1010600067C0ABC087D0A8F39923D9F35523C9F340
:10107000950F50E0551FAA27EE27FF27BB27002416
:101080000894679520F4E20FF31FB41F0A1E220F85
:10109000331F441FAA1F6695A9F7779530F4F30F05
:1010A000B41F0A1E121E08F46395330F441FAA1FB3
:1010B000221F769599F7879520F4B40F0A1E121E09
:1010C000631F440FAA1F221F331F8695A9F7862F7F
:1010D000712D602D11249F5750408AF0E1F0882334
:1010E0004AF0EE0FFF1FBB1F661F771F881F91502E
:1010F0005040A9F79E3F510570F014C05EC05F3F9D
:10110000ECF3983EDCF3869577956795B795F79560
:10111000E7959F5FC1F7FE2B880F911D96958795E8
:1011200097F9089597F99F6780E870E060E0089567
:101130009FEF80EC089500240A94161617061806EF
:101140000906089500240A941216130614060506CB
:101150000895092E0394000C11F4882352F0BB0F5C
:1011600040F4BF2B11F460FF04C06F5F7F4F8F4FBF
:101170009F4F089557FD9058440F551F59F05F3FFA
:1011800071F04795880F97FB991F61F09F3F79F0A9
:1011900087950895121613061406551FF2CF46952B
:1011A000F1DF08C0161617061806991FF1CF8695AD
:1011B0007105610508940895E894BB276627772791
:1011C000CB0197F908952F923F924F925F926F92C1
:1011D0007F928F929F92AF92BF92CF92DF92EF92C7
:1011E000FF920F931F93CF93DF93CDB7DEB7CA1B48
:1011F000DB0B0FB6F894DEBF0FBECDBF09942A8873
:10120000398848885F846E847D848C849B84AA841A
:10121000B984C884DF80EE80FD800C811B81AA81A7
:10122000B981CE0FD11D0FB6F894DEBF0FBECDBF72
:10123000ED01089597FB072E16F4009406D077FD74
:1012400008D00BD007FC05D03EF4909581959F4FB8
:101250000895709561957F4F0895AA1BBB1B51E1BE
:1012600007C0AA1FBB1FA617B70710F0A61BB70B16
:10127000881F991F5A95A9F780959095BC01CD01BB
:101280000895EE0FFF1F0590F491E02D09947ADF89
:1012900088F09F5790F0B92F9927B751A0F0D1F05F
:1012A000660F771F881F991F1AF0BA95C9F712C0E9
:1012B000B13081F081DFB1E008957ECF672F782FC4
:1012C0008827B85F39F0B93FCCF386957795679555
:1012D000B395D9F73EF490958095709561957F4FC1
:1012E0008F4F9F4F08950F931F93CF93DF938230BB
:1012F000910510F482E090E0E0912401F091250145
:1013000030E020E0B0E0A0E0309799F421153105FD
:1013100009F44AC0281B390B24303105D8F58A81DD
:101320009B816115710589F1FB0193838283FE0125
:1013300011C0408151810281138148175907E0F0A3
:101340004817590799F4109761F012960C93129769
:1013500013961C933296CF01DF91CF911F910F917D
:1013600008950093240110932501F4CF2115310530
:1013700051F04217530738F0A901DB019A01BD0172
:10138000DF01F801C1CFEF01F9CF909325018093E0
:101390002401CDCFFE01E20FF31F819391932250E0
:1013A000310939832883D7CF20912201309123013D
:1013B000232B41F42091620030916300309323018C
:1013C00020932201209160003091610021153105A8
:1013D00041F42DB73EB74091640050916500241B45
:1013E000350BE0912201F0912301E217F307A0F4FD
:1013F0002E1B3F0B2817390778F0AC014E5F5F4F6B
:101400002417350748F04E0F5F1F50932301409378
:101410002201819391939FCFF0E0E0E09CCFCF93A6
:10142000DF930097E9F0FC01329713821282A091BA
:101430002401B0912501ED0130E020E01097A1F4E6
:1014400020813181820F931F20912201309123014D
:101450002817390709F061C0F0932301E0932201B6
:10146000DF91CF910895EA01CE17DF07E8F54A81B1
:101470005B819E0141155105B1F7E901FB83EA83C8
:1014800049915991C40FD51FEC17FD0761F4808174
:1014900091810296840F951FE90199838883828147
:1014A00093819B838A83F0E0E0E012968D919C917A
:1014B00013970097B9F52D913C911197CD010296A4
:1014C000820F931F209122013091230128173907A1
:1014D00039F6309751F51092250110922401B093FE
:1014E0002301A0932201BCCFD383C28340815181C9
:1014F000840F951FC817D90761F44E5F5F4F88812D
:101500009981480F591F518340838A819B8193831E
:1015100082832115310509F0B0CFF0932501E093C6
:1015200024019ECFFD01DC01C0CF13821282D7CFF0
:10153000B0E0A0E0EDE9FAE048CE8C01009741F47C
:10154000CB01D1DE8C01C801CDB7DEB7E0E159CEC9
:10155000FC01E60FF71F9C0122503109E217F30747
:1015600008F499C0D901CD91DC911197C617D7071E
:1015700090F0C530D10538F3CE0104978617970750
:1015800010F3C61BD70B2297C193D1936D937C9315
:10159000CF0145DFD8CF5B01AC1ABD0A4C018C0EE0
:1015A0009D1EA0912401B0912501512C412CF12CBC
:1015B000E12C109731F5809122019091230188153B
:1015C000990509F05CC04616570608F058C080918E
:1015D000600090916100009741F48DB79EB74091F3
:1015E000640050916500841B950BE817F90708F01B
:1015F00052C0F0932301E0932201F90171836083CB
:10160000A2CF8D919C91119712966C901297139680
:101610007C901397A815B90559F56C0142E0C40EEA
:10162000D11CCA14DB0420F1AC014A195B09DA01B0
:101630001296159780F06282738251834083D9019C
:101640006D937C93E114F10471F0D7011396FC9330
:10165000EE93129778CF22968C0F9D1FF9019183FC
:101660008083F301EFCFF0932501E09324016BCF4A
:101670004816590608F42C017D01D3019ACFCB01FD
:1016800032DE7C01009739F0AE01B80107D0C80105
:10169000C6DE870158CF10E000E055CFFB01DC012A
:1016A00002C001900D9241505040D8F70895FB01BF
:1016B000DC0101900D920020E1F70895F894FFCF2E
:1016C0000000260180005E00BC00770100000000E1
:1016D0002001EF00E200C800A800A7007B225365AC
:1016E0006E736F72223A22426F696C6572222C22ED
:1016F0004944223A31323334353637382C226D732F
:1017000067223A002C22776174657254656D7022ED
:101710003A002C2261697254656D70223A002C22C5
:1017200056426174223A002C2252535349223A22E3
:06173000787878227D00AC
:00000001FF
