:1000000037C05BC05AC059C026C457C056C055C07F
:1000100054C053C052C0D5C350C04FC04EC04DC0D5
:100020004CC0005EBCE2613FDD83C29C7E20A3FD2C
:100030001F41009D23BE46DB65F88C11AF32CA57C5
:10004000E974000001020304000000000000000049
:10005000003B00380002020201010101010101011F
:100060000201020480402010080402010800350447
:1000700011241FBECFE5D2E0DEBFCDBF21E0A6ED4B
:10008000B0E001C01D92AC32B207E1F710E0A0E68B
:10009000B0E0EEE6F8E102C005900D92A63DB10792
:1000A000D9F710E0C8E3D0E003C02197FE015BD987
:1000B000C733D107D1F731D4D8CBA2CFC2988FB9EB
:1000C00080E48EB98BE1769902C08DB9FCCF8FB1F7
:1000D0006FB980E48EB98BE1769902C08DB9FCCFFF
:1000E0008FB1C29A08953FB7F8948091E50090913E
:1000F000E600A091E700B091E80022B708B600FE44
:1001000005C02F3F19F00196A11DB11D3FBFBA2FA9
:10011000A92F982F8827BC01CD01620F711D811D69
:10012000911D43E0660F771F881F991F4A95D1F7ED
:100130000895DC0180E0615090F09D919827E92FAF
:10014000EF70F0E0EE5DFF4F2491E92FE295EF7044
:10015000F0E0EE5CFF4FE491822F8E27ECCF089504
:10016000DC012C911196ED91FC91F8948181822B08
:1001700081839281322F30959323928382E090E0A5
:100180000197F1F781818323818380E190E00197DA
:10019000F1F790817894E6E6F0E03197F1F7922359
:1001A00081E009F480E00895FC0190810180F281F2
:1001B000E02D292F209560FF14C0F89482818223BE
:1001C00082838181892B8183A0E1B0E01197F1F7CF
:1001D0008281982B928378948AE690E00197F1F7D8
:1001E0000895F8948281822382838181892B81837F
:1001F000AEE7B0E01197F1F78281982B9283789463
:1002000086E090E0EBCFDF92EF92FF920F931F9387
:10021000CF93DF93EC01D62EE42E08E010E0FF240C
:10022000F39461E08D2D8F2109F460E0CE01BCDFF5
:10023000FF0C01501109A9F7E11010C0F894E981F1
:10024000FA8191818881809589238183E981FA816E
:10025000928188818095892382837894DF91CF91E0
:100260001F910F91FF90EF90DF900895EF92FF9212
:100270000F931F93CF93DF938C017B0140E065E5E3
:10028000C2DFE70188E0E80EF11C699140E0C80197
:10029000BADFCE15DF05C9F7DF91CF911F910F911E
:1002A000FF90EF900895862F60E008CF08951F9388
:1002B000CF93DF93EC01E881F9810480F581E02D93
:1002C0000995892B89F06DE0CE01EDDF182F60E0F4
:1002D000CE01E9DFC82F612F8DE8F0DE8C2F90E092
:1002E000DF91CF911F9108958FEF9FEFF9CFCF93BB
:1002F000DF93EC01E881F9810480F581E02D099517
:10030000892B61F08C859D8501969D878C8760E0A7
:10031000CE01C9DF90E0DF91CF9108958FEF9FEF7D
:10032000FACFCF93DF93EC0163E1BDDF90E02C8542
:100330003D85821B930BDF91CF910895CF92DF9281
:10034000FF920F931F93CF93DF936B01EA0162E259
:10035000AADFF82E90E09C012C0F3D1F2F3F3105A6
:1003600029F020F0CFEFD0E0C81BD90B8601CC0ECE
:10037000DD1E0C151D0531F0F80161918F0180E83B
:100380009DDEF7CF6C2F6F0D82EA98DECE01DF91F4
:10039000CF911F910F91FF90DF90CF900895CF9351
:1003A000DF931F92CDB7DEB76983DC01ED91FC913D
:1003B0000280F381E02D41E050E0BE016F5F7F4F8E
:1003C00009950F90DF91CF91089587FF07C0E82F1F
:1003D000EF778AE08E1BE83008F08FEF90E0FC01A9
:1003E000EE5BFF4F3491FC01EF59FF4F2491FC016C
:1003F000EB5AFF4FE491EE23B9F0332329F031306B
:10040000A1F480B78F7780BFF0E0EE0FFF1FE15BB4
:10041000FF4FA591B4918FB7611117C0F894EC917B
:1004200020952E232C938FBF0895323019F480B776
:100430008F7DE9CF333021F48FB58F778FBDE4CF37
:10044000343011F78FB58F7DF9CFF894EC912E2BC6
:10045000E9CFFC0190810180F281E02DF894818147
:10046000292F20958223818378943DE7315011F123
:1004700080818923D9F3F8948281822382838181C8
:10048000892B81837894ACEBB3E01197F1F7F89462
:10049000818182238183A8E8B0E01197F1F7808100
:1004A000982381E009F080E07894E0E3F3E031976D
:1004B000F1F7089580E008956F927F928F929F9256
:1004C000AF92BF92CF92DF92EF92FF920F931F9362
:1004D000CF93DF938C01EB018091F4009091F500B4
:1004E000B8DF8823D9F1B8018091F4009091F5002C
:1004F000BDDE40E06EEB8091F4009091F50083DE6C
:100500007E016E0189E0C80ED11C8E01A090F4001E
:10051000B090F50088E0882E912C712C66246394AD
:10052000C5011EDE81117628660CE1E08E1A910865
:10053000B9F7F80171928F01CE16DF0639F7809175
:10054000F4009091F50085DF813041F4F70181914D
:100550007F01811105C0E017F107C1F790E007C0E6
:1005600068E0CE01E6DD91E028852813F7CF892FDA
:10057000DF91CF911F910F91FF90EF90DF90CF907F
:10058000BF90AF909F908F907F906F900895BF9293
:10059000CF92DF92EF92FF920F931F93CF93DF934F
:1005A000EC01B62EC72E8D85811104C0CE0151DF1E
:1005B00081110EC01B861D861C8680E0DF91CF91C5
:1005C0001F910F91FF90EF90DF90CF90BF90089513
:1005D00040E060EFCE0117DE01E0E12CD12C11E00C
:1005E000CE01BEDDF82ECE01BBDD91E0F91218C0C0
:1005F000813099F51134F0F2DB86D11002C081E030
:100600008D878B818823B1F22396EB2DFC2DCF01B2
:10061000089629912193E817F907D9F781E0CECF01
:10062000EE2DF0E0F8120FC08B851817A0F4DE0154
:10063000AE0FBF1F13968C91802379F4F12C1930E3
:1006400008F41C87D12EEC0FFD1F8381902F90950D
:10065000892383830AC08113F1CFFE01EE0DF11DC2
:100660008381802B8383FF24F3946F2DCE019CDD47
:100670001F5F000F11F4E39401E087E08E1508F08E
:10068000AFCFB8CF0F931F93CF93DF93EC01888147
:100690009981009759F02A813B812617370730F05E
:1006A00081E0DF91CF911F910F9108958B016F5FD2
:1006B0007F4F15D8009759F0998388831B830A834D
:1006C0002C813D81232B61F7FC011082E9CF80E072
:1006D000E8CFEF92FF920F931F93CF93DF93FB012D
:1006E00001900020E9F73197E61BF70BD1F07B0171
:1006F0008C01DC011496CD91DC91CE0FDF1FBE0181
:10070000C1DF882379F0F8012081318184819581CE
:10071000B701820F931FA2D8D8011596DC93CE9310
:10072000149781E0DF91CF911F910F91FF90EF908F
:100730000895CF92DF92EF92FF920F931F93CF9382
:10074000DF9300D000D000D01F92CDB7DEB77C0180
:10075000CB014AE09E012F5F3F4F6901B9014AD4A6
:10076000F60101900020E9F73197EC19FD09C9F075
:10077000D70114960D911C910E0F1F1FB801C701D0
:1007800081DF882379F0F70120813181848195818F
:10079000B601820F931F62D8D70115961C930E9352
:1007A000149781E027960FB6F894DEBF0FBECDBF39
:1007B000DF91CF911F910F91FF90EF90DF90CF903D
:1007C00008951F920F920FB60F9211242F933F930B
:1007D0008F939F93AF93BF938091E1009091E2003C
:1007E000A091E300B091E4003091E00026E0230FF7
:1007F0002D3768F129E8230F0396A11DB11D209321
:10080000E0008093E1009093E200A093E300B093B6
:10081000E4008091E5009091E600A091E700B0919E
:10082000E8000196A11DB11D8093E5009093E600BC
:10083000A093E700B093E800BF91AF919F918F9193
:100840003F912F910F900FBE0F901F901895029619
:10085000A11DB11DD4CF1F920F920FB60F9211247C
:100860000F900FBE0F901F9018958FB7F894B998FE
:10087000C1988FBFE2E0F1E082E0808386E390E000
:1008800092838183138615861486128611861086BC
:1008900017821682158214821382ABEEB0E0569650
:1008A0001C921E92559711961C9211971A96FC93C2
:1008B000EE93199717961C92179718961C921897F3
:1008C0001C9289E013968C93139781E014968C9375
:1008D000149715968C93159716968C9385E090E057
:1008E0009093EA008093E900E0E1F1E01382128244
:1008F00080E790E09183808315861486178616869C
:10090000108A118A128A138A158A148A178A168AFB
:1009100014821582168217820895CF93DF93CDB784
:10092000DEB761970FB6F894DEBF0FBECDBF83E090
:1009300080BF83BF789499B7916099BF91E09FBDC4
:100940008EBD86E886B9E091F400F091F50013863B
:1009500015861486128611861086178216821582D5
:10096000148213821092F2001092F30011E0BE0183
:10097000665F7F4F8091F4009091F50008DE882338
:1009800009F473C067E0CE010A96D3DB9989891315
:10099000EECF8091F2008F5F8093F2008A858832DB
:1009A00031F008F048C0803111F0823201F78091B7
:1009B000F3008F5F8093F3008091EB00811123C0DF
:1009C0008091F4009091F50044DDBE01665F7F4F99
:1009D0008091F4009091F50049DC40E064EB809157
:1009E000F4009091F5000FDC8091F4009091F500F7
:1009F000B7DB082F8091F4009091F5002ADD0111FA
:100A000002C01093EB008A85803101F1BE016F5F57
:100A10007F4FCE010A9650DD882359F08D819A854B
:100A20009B3311F487FD12C08F3391F058F48F314E
:100A3000C1F080E00EC08B3309F4B9CF823409F0E5
:100A400096CFB5CF8F3579F08F3799F78CE001C00D
:100A50008AE09091EE00981708F089CF8093EE001D
:100A600086CF89E0F6CF8BE0F4CFD49AD59AD6988A
:100A7000BA9A62E480E191E016DC823109F08DC11E
:100A800060E881E81BDB80E09FE9AEE8B8E1809395
:100A9000200190932101A0932201B093230167E6E6
:100AA00086E80CDB60E087E809DB60E088E806DBCD
:100AB00060E08EE803DB60E08FE800DB6CE080E163
:100AC00091E0F1DB682F63608CE8F8DA64E086EA95
:100AD000F5DA64E88DECF2DA6BE28BE8EFDA6FE8D6
:100AE00089E8ECDA61E881E8E9DA8091F400909134
:100AF000F500AFDC40E06CEC8091F4009091F500E3
:100B000082DB4091EB0064E48091F4009091F50069
:100B10007ADB8FB7F894C090E100D090E200E090CB
:100B2000E300F090E4008FBF8091EF00882321F173
:100B30008091F000882309F431C18091EB0081118C
:100B40002DC18091F4009091F5000ADB8130A1F075
:100B50002FB7F8948091E1009091E200A091E3001A
:100B6000B091E4002FBF8C199D09AE09BF098E3EDC
:100B70009240A105B10528F3E091F400F091F50051
:100B800013861586148612861186108617821682A1
:100B9000158214821382BE01665F7F4F8091F4003C
:100BA0009091F500F4DC811136C160E070E08EEFC9
:100BB00092EC20E030E048EC52E4AAD26B017C01D8
:100BC0000091DE001091DF0020E030E04EEF52ECAB
:100BD0003AD2882309F4B6C1B80190E080E037D258
:100BE000A7019601C7D32AD47093DF006093DE007B
:100BF0008091DC009091DD0001969093DD00809360
:100C0000DC008091DA009091DB0001969093DB008C
:100C10008093DA00089709F0BDC18091DE009091C1
:100C2000DF0023E0969587952A95E1F79093DF0002
:100C30008093DE008091D8009091D90033E09695A2
:100C400087953A95E1F79093D9008093D80017B82B
:100C5000369A3699FECF84B165B1762F682F072E6C
:100C6000000C880B990BF5D12DE038E643E55BE3EA
:100C70004FD220E030E04AEF54E44AD2DFD3709301
:100C8000D7006093D60061E080E191E00CDB8370D7
:100C90008330F1F062E180E191E005DB83FF03C086
:100CA00068E082E90BDA61E881E808DA10921F0156
:100CB00010921E016DE180E191E0F5DA682F6E7F00
:100CC0008DE9FCD960E08DE8F9D960E082EAF6D9D7
:100CD0001A8219821C821B821E821D8267E270E0CA
:100CE000CE010196CFDC29813A81811132C12115D3
:100CF000310511F0C9016AD41A8219821E821D823F
:100D00001C821B826091DC007091DD00CE01019697
:100D100010DD64EA70E0CE010196DBDC8091D80042
:100D20009091D90064E670E0E6D2BC01CE01019654
:100D300000DD62EB70E0CE010196CBDC6091DE005D
:100D40007091DF00CE010196F4DC6EEB70E0CE0115
:100D50000196BFDC6091D6007091D700CE0101965C
:100D6000E8DC67EC70E0CE010196B3DC10E000E057
:100D700089819A812D813E810217130708F0F2C004
:100D800060E0009721F0800F911FFC01608180E1FD
:100D900091E005DB0F5F1F4FEBCFFFCFE091EE003F
:100DA000E9508EEE92E0E33038F4F0E0EE0FFF1FF2
:100DB000EA59FF4F808191816C01F12CE12C8091E7
:100DC000EC00882321F060E08091ED00FEDA8BD901
:100DD0008B01C114D104E104F10489F48091EC0089
:100DE000882309F4C9CE61E08091ED00EEDAC4CE2B
:100DF00031E0C31AD108E108F10808511C4F73D93A
:100E0000601B710B683E734020F3C114D104E104F0
:100E1000F10471F7DECF67E0CE010A968AD999898D
:100E20008913C3CEBE016F5F7F4FCE010A9644DBAC
:100E3000882309F4BACE2A8160E070E0CB0127FF55
:100E400004C060E070E088EF9FEF4A85C9804B33B3
:100E5000B9F53D8137FF34C0C0FCA7CED12CF12CB1
:100E6000E12CB3E0CC0CDD1CEE1CFF1CBA95D1F7D5
:100E700050EEC52257E0D522EE24FF24022F10E0C9
:100E800030E020E04BE0000F111F221F331F4A9576
:100E9000D1F70C291D292E293F29602B712B822B7C
:100EA000932B6138F4EE7F07FFEF8F079F070CF459
:100EB0007CCECFD020E030E040E05CE329D179CE99
:100EC000022F10E0102F0027110F110F110FD12C3E
:100ED000A3E0CC0CDD1CAA95E1F70C291D29012EFD
:100EE000000C220B330B602B712B822B932B403188
:100EF000C1F648854423A9F28B019C0153E0000F01
:100F0000111F221F331F5A95D1F7007827703327FE
:100F10000052110921093109642F70E08F81FB0112
:100F2000E81BF109CF019695982F8827979587950B
:100F3000F3D1072E000C880B990B600F711F821FD5
:100F4000931FAFCF0F5F11091093DF000093DE00F6
:100F50004FCE87E290E09E838D836CE770E0C901FD
:100F60007DD4D0CE33D363E881E8A8D862E180E1B4
:100F700091E099D983FFFACF68E082E99FD860E8D1
:100F800081E89CD81092DF001092DE001092DB0006
:100F90001092DA0086B186B92091E9003091EA001A
:100FA0002A30310524F5822F87702830310504F569
:100FB000806194B7977F94BF91B5986191BD81BDD1
:100FC00081B5806481BD85B7877E806185BF85B727
:100FD000806285BF789485B7806285BF889585B724
:100FE0008F7D85BF85B78F7D85BF379A7ECD81E0A8
:100FF0008062DECFBB27FB015527AA27880F991FE8
:10100000AA1FA41710F0A41B83955051B9F7A05D37
:10101000AA3308F0A95DA193009779F7B111B193B4
:101020001192CB0100C0DC01FC01672F7191772385
:10103000E1F7329704C07C916D9370836291AE1793
:10104000BF07C8F3089540D008F481E00895E894FC
:1010500009C097FB3EF490958095709561957F4F00
:101060008F4F9F4F9923A9F0F92F96E9BB279395AE
:10107000F695879577956795B795F111F8CFFAF4BE
:10108000BB0F11F460FF1BC06F5F7F4F8F4F9F4FEF
:1010900016C0882311F096E911C0772321F09EE84D
:1010A000872F762F05C0662371F096E8862F70E0B3
:1010B00060E02AF09A95660F771F881FDAF7880F8D
:1010C0009695879597F90895990F0008550FAA0BE3
:1010D000E0E8FEEF16161706E807F907C0F012164B
:1010E0001306E407F50798F0621B730B840B950B4E
:1010F00039F40A2661F0232B242B252B21F40895A3
:101100000A2609F4A140A6958FEF811D811D08953F
:101110000AD080C071D028F076D018F0952309F05D
:1011200062C067C0ABC087D0A8F39923D9F3552319
:10113000C9F3950F50E0551FAA27EE27FF27BB27BD
:1011400000240894679520F4E20FF31FB41F0A1ED1
:10115000220F331F441FAA1F6695A9F7779530F415
:10116000F30FB41F0A1E121E08F46395330F441FB9
:10117000AA1F221F769599F7879520F4B40F0A1EAF
:10118000121E631F440FAA1F221F331F8695A9F743
:10119000862F712D602D11249F5750408AF0E1F069
:1011A00088234AF0EE0FFF1FBB1F661F771F881FA3
:1011B00091505040A9F79E3F510570F014C05EC099
:1011C0005F3FECF3983EDCF3869577956795B7958E
:1011D000F795E7959F5FC1F7FE2B880F911D9695B8
:1011E000879597F9089597F99F6780E870E060E028
:1011F00008959FEF80EC089500240A9416161706B0
:1012000018060906089500240A94121613061406F7
:1012100005060895092E0394000C11F4882352F05A
:10122000BB0F40F4BF2B11F460FF04C06F5F7F4F12
:101230008F4F9F4F089557FD9058440F551F59F0F9
:101240005F3F71F04795880F97FB991F61F09F3FB3
:1012500079F087950895121613061406551FF2CFDC
:101260004695F1DF08C0161617061806991FF1CF2C
:1012700086957105610508940895E894BB27662753
:101280007727CB0197F908952F923F924F925F9263
:101290006F927F928F929F92AF92BF92CF92DF9286
:1012A000EF92FF920F931F93CF93DF93CDB7DEB7EB
:1012B000CA1BDB0B0FB6F894DEBF0FBECDBF09947F
:1012C0002A88398848885F846E847D848C849B84D6
:1012D000AA84B984C884DF80EE80FD800C811B81E4
:1012E000AA81B981CE0FD11D0FB6F894DEBF0FBE13
:1012F000CDBFED0108950024552704C0080E591FE5
:10130000880F991F009729F076956795B8F37105B6
:10131000B9F7802D952F089597FB072E16F40094AA
:1013200006D077FD08D00BD007FC05D03EF4909591
:1013300081959F4F0895709561957F4F0895AA1BE1
:10134000BB1B51E107C0AA1FBB1FA617B70710F0B0
:10135000A61BB70B881F991F5A95A9F780959095E2
:10136000BC01CD010895EE0FFF1F0590F491E02D13
:1013700009945058BB27AA270ED04CCF3DDF30F040
:1013800042DF20F031F49F3F11F41EF432CF0EF40F
:10139000E095E7FB28CFE92F4EDF80F3BA1762070D
:1013A00073078407950718F071F49EF566CF0EF465
:1013B000E0950B2EBA2FA02D0B01B90190010C0165
:1013C000CA01A0011124FF27591B99F0593F50F47D
:1013D000503E68F11A16F040A22F232F342F4427D5
:1013E000585FF3CF469537952795A795F0405395CD
:1013F000C9F77EF41F16BA0B620B730B840BBAF09D
:101400009150A1F0FF0FBB1F661F771F881FC2F707
:101410000EC0BA0F621F731F841F48F4879577951B
:101420006795B795F7959E3F08F0B3CF9395880FD2
:1014300008F09927EE0F97958795089504DF88F0B7
:101440009F5790F0B92F9927B751A0F0D1F0660FB0
:10145000771F881F991F1AF0BA95C9F712C0B130CB
:1014600081F00BDFB1E0089508CF672F782F882730
:10147000B85F39F0B93FCCF3869577956795B3950A
:10148000D9F73EF490958095709561957F4F8F4F79
:101490009F4F08950F931F93CF93DF938230910551
:1014A00010F482E090E0E0912A01F0912B0130E00D
:1014B00020E0B0E0A0E0309799F42115310509F45F
:1014C0004AC0281B390B24303105D8F58A819B810D
:1014D0006115710589F1FB0193838283FE0111C0BF
:1014E000408151810281138148175907E0F0481764
:1014F000590799F4109761F012960C93129713966E
:101500001C933296CF01DF91CF911F910F910895D7
:1015100000932A0110932B01F4CF2115310551F0CE
:101520004217530738F0A901DB019A01BD01DF0121
:10153000F801C1CFEF01F9CF90932B0180932A01DD
:10154000CDCFFE01E20FF31F819391932250310919
:1015500039832883D7CF2091280130912901232B6B
:1015600041F420916200309163003093290120936F
:10157000280120916000309161002115310541F46E
:101580002DB73EB74091640050916500241B350B88
:10159000E0912801F0912901E217F307A0F42E1B36
:1015A0003F0B2817390778F0AC014E5F5F4F2417C7
:1015B000350748F04E0F5F1F5093290140932801D3
:1015C000819391939FCFF0E0E0E09CCFCF93DF93A6
:1015D0000097E9F0FC01329713821282A0912A0150
:1015E000B0912B01ED0130E020E01097A1F42081B3
:1015F0003181820F931F20912801309129012817F2
:10160000390709F061C0F0932901E0932801DF91C7
:10161000CF910895EA01CE17DF07E8F54A815B8193
:101620009E0141155105B1F7E901FB83EA83499118
:101630005991C40FD51FEC17FD0761F4808191818A
:101640000296840F951FE901998388838281938193
:101650009B838A83F0E0E0E012968D919C91139732
:101660000097B9F52D913C911197CD010296820F0B
:10167000931F20912801309129012817390739F645
:10168000309751F510922B0110922A01B093290145
:10169000A0932801BCCFD383C28340815181840FA2
:1016A000951FC817D90761F44E5F5F4F88819981F4
:1016B000480F591F518340838A819B819383828382
:1016C0002115310509F0B0CFF0932B01E0932A01E9
:1016D0009ECFFD01DC01C0CF13821282D7CFB0E0D4
:1016E000A0E0E4E7FBE0D2CD8C01009741F4CB0110
:1016F000D1DE8C01C801CDB7DEB7E0E1E3CDFC015E
:10170000E60FF71F9C0122503109E217F30708F496
:1017100099C0D901CD91DC911197C617D70790F0E8
:10172000C530D10538F3CE0104978617970710F31B
:10173000C61BD70B2297C193D1936D937C93CF0196
:1017400045DFD8CF5B01AC1ABD0A4C018C0E9D1E43
:10175000A0912A01B0912B01512C412CF12CE12CAC
:10176000109731F5809128019091290188159905EC
:1017700009F05CC04616570608F058C0809160001A
:1017800090916100009741F48DB79EB7409164003D
:1017900050916500841B950BE817F90708F052C0BB
:1017A000F0932901E0932801F90171836083A2CFAE
:1017B0008D919C91119712966C90129713967C9034
:1017C0001397A815B90559F56C0142E0C40ED11C58
:1017D000CA14DB0420F1AC014A195B09DA01129644
:1017E000159780F06282738251834083D9016D9393
:1017F0007C93E114F10471F0D7011396FC93EE93FE
:10180000129778CF22968C0F9D1FF90191838083C8
:10181000F301EFCFF0932B01E0932A016BCF481631
:10182000590608F42C017D01D3019ACFCB0132DE99
:101830007C01009739F0AE01B80107D0C801C6DEBF
:10184000870158CF10E000E055CFFB01DC0102C05A
:1018500001900D9241505040D8F70895FB01DC01F2
:0E18600001900D920020E1F70895F894FFCF5B
:10186E0000002C0180005E00BC007701000000002B
:10187E00CF019E0191017701570156017B225365DD
:10188E006E736F72223A22426F696C6572222C223D
:10189E004944223A31323334353637382C226D737F
:1018AE0067223A002C22776174657254656D70223E
:1018BE003A002C2261697254656D70223A002C2216
:1018CE0056426174223A002C2252535349223A2234
:0618DE00787878227D00FD
:00000001FF
