:100000003DC061C060C05FC06AC65DC05CC05BC00F
:100010005AC059C058C019C656C055C054C053C064
:1000200052C000003A003700000039003600005E80
:10003000BCE2613FDD83C29C7E20A3FD1F41009D89
:1000400023BE46DB65F88C11AF32CA57E974000055
:100050003B0038000202020101010101010101021D
:10006000010204804020100804020108000001027F
:1000700003040000000000000000D90611241FBE88
:10008000CFE5D2E0DEBFCDBF21E0A6EDB0E001C0FC
:100090001D92A135B207E1F710E0A0E6B0E0E4EA76
:1000A000FAE102C005900D92A63DB107D9F710E024
:1000B000CEE3D0E003C02197FE0170DACD33D10743
:1000C000D1F7C0D6EDCC9CCFC2988FB980E48EB961
:1000D0008BE1769902C08DB9FCCF8FB16FB980E406
:1000E0008EB98BE1769902C08DB9FCCF8FB1C29ADF
:1000F00008953FB7F8948091E5009091E600A091B3
:10010000E700B091E80022B708B600FE05C02F3F17
:1001100019F00196A11DB11D3FBFBA2FA92F982F2D
:100120008827BC01CD01620F711D811D911D43E027
:10013000660F771F881F991F4A95D1F70895DC0134
:1001400080E0615090F09D919827E92FEF70F0E0EA
:10015000E25DFF4F2491E92FE295EF70F0E0E25C61
:10016000FF4FE491822F8E27ECCF0895DC012C9174
:100170001196ED91FC91F8948181822B818392817B
:10018000322F30959323928382E090E00197F1F72C
:1001900081818323818380E190E00197F1F7908151
:1001A0007894E6E6F0E03197F1F7922381E009F4E4
:1001B00080E00895FC0190810180F281E02D292FDB
:1001C000209560FF14C0F89482818223828381810C
:1001D000892B8183A0E1B0E01197F1F78281982B00
:1001E000928378948AE690E00197F1F70895F89465
:1001F0008281822382838181892B8183AEE7B0E073
:100200001197F1F78281982B9283789486E090E0A1
:10021000EBCFDF92EF92FF920F931F93CF93DF9379
:10022000EC01D62EE42E08E010E0FF24F39461E008
:100230008D2D8F2109F460E0CE01BCDFFF0C015051
:100240001109A9F7E11010C0F894E981FA819181B0
:100250008881809589238183E981FA8192818881CF
:100260008095892382837894DF91CF911F910F919C
:10027000FF90EF90DF900895EF92FF920F931F93FE
:10028000CF93DF938C017B0140E065E5C2DFE7019E
:1002900088E0E80EF11C699140E0C801BADFCE1594
:1002A000DF05C9F7DF91CF911F910F91FF90EF907C
:1002B0000895862F60E008CF08951F93CF93DF93B2
:1002C000EC01E881F9810480F581E02D0995892B05
:1002D00089F06DE0CE01EDDF182F60E0CE01E9DF9F
:1002E000C82F612F8DE8F0DE8C2F90E0DF91CF9149
:1002F0001F9108958FEF9FEFF9CFCF93DF93EC011C
:10030000E881F9810480F581E02D0995892B61F060
:100310008C859D8501969D878C8760E0CE01C9DF25
:1003200090E0DF91CF9108958FEF9FEFFACFCF93B9
:10033000DF93EC0163E1BDDF90E02C853D85821BFE
:10034000930BDF91CF910895CF92DF92FF920F939D
:100350001F93CF93DF936B01EA0162E2AADFF82ECD
:1003600090E09C012C0F3D1F2F3F310529F020F01C
:10037000CFEFD0E0C81BD90B8601CC0EDD1E0C15CB
:100380001D0531F0F80161918F0180E89DDEF7CF06
:100390006C2F6F0D82EA98DECE01DF91CF911F9115
:1003A0000F91FF90DF90CF900895CF93DF931F922E
:1003B000CDB7DEB76983DC01ED91FC910280F3815A
:1003C000E02D41E050E0BE016F5F7F4F09950F9037
:1003D000DF91CF910895FC0190810180F281E02DA1
:1003E000F8948181292F20958223818378943DE799
:1003F000315011F180818923D9F3F89482818223CD
:1004000082838181892B81837894ACEBB3E011974F
:10041000F1F7F894818182238183A8E8B0E01197F5
:10042000F1F78081982381E009F080E07894E0E39F
:10043000F3E03197F1F7089580E00895BF92CF92ED
:10044000DF92EF92FF920F931F93CF93DF93EC0114
:10045000B62EC72E8D85811104C0CE01BCDF81115F
:100460000EC01B861D861C8680E0DF91CF911F91F8
:100470000F91FF90EF90DF90CF90BF90089540E0F4
:1004800060EFCE01C6DE01E0E12CD12C11E0CE01FF
:100490006DDEF82ECE016ADE91E0F91218C08130CF
:1004A00099F51134F0F2DB86D11002C081E08D871E
:1004B0008B818823B1F22396EB2DFC2DCF0108967A
:1004C00029912193E817F907D9F781E0CECFEE2DD6
:1004D000F0E0F8120FC08B851817A0F4DE01AE0F04
:1004E000BF1F13968C91802379F4F12C193008F4F6
:1004F0001C87D12EEC0FFD1F8381902F90958923AF
:1005000083830AC08113F1CFFE01EE0DF11D8381BB
:10051000802B8383FF24F3946F2DCE014BDE1F5F6E
:10052000000F11F4E39401E087E08E1508F0AFCFDF
:10053000B8CFCF93DF93EB01DC011996ED91FC91DD
:100540001A971386158614861286118610861782CE
:10055000168215821482138219968D919C916EDFFA
:10056000982F882339F067E0CE01E9DD91E02F81F3
:10057000281390E0892FDF91CF9108954F925F92D9
:100580006F927F928F929F92AF92BF92CF92DF92A3
:10059000EF92FF920F931F93CF93DF938C017B0118
:1005A000EA01FC018185928516DF8823B9F1B70144
:1005B000F8018185928560DE40E06EEBF80181856F
:1005C000928527DE6E015E01F9E0AF0EB11C7E015F
:1005D000F8018184928488E0682E712C512C442487
:1005E0004394C401C3DD81115428440CF1E06F1A17
:1005F0007108B9F7F70151927F01AE16BF0641F7B6
:10060000F80181859285E7DE813041F4F601819120
:100610006F01811105C0EE15FF05C1F790E007C01D
:1006200068E0CE018CDD91E028852813F7CF892F73
:10063000DF91CF911F910F91FF90EF90DF90CF90BE
:10064000BF90AF909F908F907F906F905F904F90F2
:100650000895CF92DF92EF92FF920F931F93CF9363
:10066000DF93CDB7DEB729970FB6F894DEBF0FBE84
:10067000CDBF8B01AE014F5F5F4F80DF811105C0A1
:1006800060E070E08EEF92EC46C02A8160E070E09E
:10069000CB0127FF04C060E070E088EF9FEFF80116
:1006A0004081C9804B3309F045C03D8137FF42C0CE
:1006B000C0FCE6CFD12CF12CE12CF3E0CC0CDD1CFE
:1006C000EE1CFF1CFA95D1F7F0EECF22F7E0DF2207
:1006D000EE24FF24022F10E030E020E0ABE0000F1A
:1006E000111F221F331FAA95D1F70C291D292E296E
:1006F0003F29602B712B822B932B613854EE7507A9
:100700005FEF850795070CF4BBCFCFD520E030E035
:1007100040E05CE329D629960FB6F894DEBF0FBE01
:10072000CDBFDF91CF911F910F91FF90EF90DF90A0
:10073000CF900895022F10E0102F0027110F110FF6
:10074000110FD12CE3E0CC0CDD1CEA95E1F70C296C
:100750001D29012E000C220B330B602B712B822BD9
:10076000932B403151F64885442339F28B019C018B
:1007700083E0000F111F221F331F8A95D1F70078E5
:10078000277033270052110921093109642F70E0C5
:100790008F81AB01481B5109CA019695982F882774
:1007A00097958795D4D6072E000C880B990B600F70
:1007B000711F821F931FA1CFEF92FF920F931F9380
:1007C000CF93DF93CDB7DEB761970FB6F894DEBF56
:1007D0000FBECDBF8C01DC011996ED91FC911A97EB
:1007E0001386158614861286118610861782168245
:1007F00015821482138217961C92179718961C92D2
:10080000FF24F394BE01665F7F4FF80181859285D6
:1008100015DE882309F470C067E0CE010A968FDCEC
:1008200099898913EFCFD80117968C9117978F5F0D
:1008300017968C938A85883231F008F044C0803155
:1008400011F08232F9F6F80180858F5F8087808110
:1008500081111FC081859285BEDDBE01665F7F4F1D
:10086000D80119968D919C9107DD40E064EBF80169
:1008700081859285CEDCD80119968D919C9176DC8C
:10088000E82EF80181859285A6DDE11002C0D8012D
:10089000FC928A85803111F1AE014F5F5F4FBE013E
:1008A000665F7F4FC8016ADE882359F08D819A8583
:1008B0009B3311F487FD12C08F3391F058F48F31C0
:1008C000B9F080E00EC08B3309F4BDCF823409F05B
:1008D00099CFB9CF8F3571F08F3799F78CE001C080
:1008E0008AE0F8019381981708F08CCF83838ACF30
:1008F00089E0F7CF8BE0F5CF61960FB6F894DEBFB5
:100900000FBECDBFDF91CF911F910F91FF90EF9060
:10091000089587FF07C0E82FEF778AE08E1BE83045
:1009200008F08FEF90E0FC01E459FF4F3491FC0197
:10093000E05AFF4F2491FC01EC5AFF4FE491EE2363
:10094000B9F0332329F03130A1F480B78F7780BF1D
:10095000F0E0EE0FFF1FE25BFF4FA591B4918FB760
:10096000611117C0F894EC9120952E232C938FBF22
:100970000895323019F480B78F7DE9CF333021F4F8
:100980008FB58F778FBDE4CF343011F78FB58F7D62
:10099000F9CFF894EC912E2BE9CF4F925F926F92A2
:1009A0007F92AF92BF92CF92DF92EF92FF920F931E
:1009B0001F93CF93DF9300D000D01F92CDB7DEB747
:1009C0008C01DC0119968D919C9105DD40E06CEC69
:1009D000F801818592851DDCD8014C9164E419965B
:1009E0008D919C9116DC8FB7F894C090E100D09067
:1009F000E200E090E300F090E4008FBFF801848112
:100A0000811122C081E08983CA82DB82EC82FD826F
:100A100029813A814B815C816D8170E080E090E0BA
:100A20000F900F900F900F900F90DF91CF911F912B
:100A30000F91FF90EF90DF90CF90BF90AF907F909D
:100A40006F905F904F90089585818823F1F08081A9
:100A500081111BC0F8018185928588DB813091F27C
:100A60002FB7F8948091E1009091E200A091E3000B
:100A7000B091E4002FBF8C199D09AE09BF098E3ECD
:100A80009240A105B10530F3BDCFD8011396EC918A
:100A9000E9508EEE92E0E33038F4F0E0EE0FFF1F05
:100AA000EA59FF4F808191812C01712C612CF80152
:100AB0008181882319F060E082812BDF1ADB5B01E2
:100AC000411451046104710451F414C0F1E04F1A4F
:100AD00051086108710828E1A21A2CEFB20A09DB5B
:100AE0006A197B09683E734058F34114510461044C
:100AF000710461F7D80111968C911197882309F43C
:100B000081CF61E012968C9104DF7CCF0F931F930D
:100B1000CF93DF93EC0188819981009759F02A8166
:100B20003B812617370730F081E0DF91CF911F918D
:100B30000F9108958B016F5F7F4FECD6009759F0AE
:100B4000998388831B830A832C813D81232B61F742
:100B5000FC011082E9CF80E0E8CFEF92FF920F9383
:100B60001F93CF93DF93FB0101900020E9F73197AA
:100B7000E61BF70BD1F07B018C01DC011496CD91C3
:100B8000DC91CE0FDF1FBE01C1DF882379F0F801B1
:100B90002081318184819581B701820F931F79D79C
:100BA000D8011596DC93CE93149781E0DF91CF9115
:100BB0001F910F91FF90EF900895CF92DF92EF92E7
:100BC000FF920F931F93CF93DF9300D000D000D0FC
:100BD0001F92CDB7DEB77C01CB014AE09E012F5FAB
:100BE0003F4F6901B90132D3F60101900020E9F7C6
:100BF0003197EC19FD09C9F0D70114960D911C919C
:100C00000E0F1F1FB801C70181DF882379F0F7019C
:100C10002081318184819581B601820F931F39D75C
:100C2000D70115961C930E93149781E027960FB663
:100C3000F894DEBF0FBECDBFDF91CF911F910F9112
:100C4000FF90EF90DF90CF9008951F920F920FB614
:100C50000F9211242F933F938F939F93AF93BF9342
:100C60008091E1009091E200A091E300B091E40056
:100C70003091E00026E0230F2D3768F129E8230F9B
:100C80000396A11DB11D2093E0008093E100909395
:100C9000E200A093E300B093E4008091E50090911E
:100CA000E600A091E700B091E8000196A11DB11DFA
:100CB0008093E5009093E600A093E700B093E800EE
:100CC000BF91AF919F918F913F912F910F900FBE48
:100CD0000F901F9018950296A11DB11DD4CF1F92A1
:100CE0000F920FB60F9211240F900FBE0F901F900E
:100CF00018950F931F93CF93DF93DC0170E09B0156
:100D0000205A3F4FF90144916C5A7F4FFB01849167
:100D10008823C9F090E0880F991FFC01EE5DFF4F1A
:100D2000C591D491FC01E25BFF4F059114915FB72F
:100D3000F8949881842F809598239883F801908166
:100D4000892380835FBFF90124912C93FB01649177
:100D5000E62FF0E0EE0FFF1FE85DFF4F85919491C5
:100D600012969C938E9311971B961C921B971D961F
:100D70001C921D971C961C921C971A961C921A97EF
:100D800019961C92199718961C92189717961C92F0
:100D9000179716961C92169715961C9215971496EF
:100DA0001C92149713961C92DF91CF911F910F9173
:100DB000089560E087E291E09CDF61E089E191E0E5
:100DC00098DFE2E0F1E0168A158A118287E291E06D
:100DD0009287818717821086108299E0938381E041
:100DE000848385838683EBEEF0E0168A158A118270
:100DF00029E131E0328721871782108610829383A0
:100E000084838583868385E090E09093EA008093D5
:100E1000E900E5E3F1E01382128280E790E091833C
:100E200080831586148617861686108A118A128A80
:100E3000138A158A148A178A168A148215821682D2
:100E400017820895CF93DF93CDB7DEB762970FB6C1
:100E5000F894DEBF0FBECDBF83E080BF83BF789420
:100E600099B7916099BF91E09FBD8EBD86E886B924
:100E700082E091E0A1DC8BEE90E09EDCD49AD59AE2
:100E8000D698BA9A62E485E391E013DA823109F0E8
:100E900073C160E881E818D980E09FE9AEE8B8E165
:100EA0008093450190934601A0934701B093480178
:100EB00067E686E809D960E087E806D960E088E857
:100EC00003D960E08EE800D960E08FE8FDD86CE0DF
:100ED00085E391E0EED9682F63608CE8F5D864E093
:100EE00086EAF2D864E88DECEFD86BE28BE8ECD8B8
:100EF0006FE889E8E9D861E881E8E6D843E0F42EB4
:100F00008BEE90E04ADD29873A874B875C876D87B7
:100F1000BE016F5F7F4F8BEE90E00BDB882309F4FF
:100F20002CC1BE016F5F7F4F8BEE90E092DB20E023
:100F300030E048EC52E418D24B015C010091DE0035
:100F40001091DF0020E030E04EEF52ECA8D1882372
:100F500009F418C1B80190E080E0A5D1A501940181
:100F600024D387D37093DF006093DE0082E091E0AA
:100F700014DD2E873F87488B598B6A8BBE016F5FCC
:100F80007F4F82E091E0D5DA882309F402C1BE01E7
:100F90006F5F7F4F82E091E05CDB20E030E048EC67
:100FA00052E4E2D14B015C010091DC001091DD00C4
:100FB00020E030E04EEF52EC72D1882309F4EEC00D
:100FC000B80190E080E06FD1A5019401EED251D339
:100FD0007093DD006093DC008091DA009091DB007B
:100FE00001969093DB008093DA008091D800909175
:100FF000D90001969093D9008093D800089709F002
:10100000F5C08091DE009091DF0023E096958795F2
:101010002A95E1F79093DF008093DE008091DC0059
:101020009091DD0033E0969587953A95E1F790939E
:10103000DD008093DC00F7B8369A3699FECF84B194
:1010400065B1762F682F072E000C880B990B2DD1D8
:101050002DE038E643E55BE387D120E030E04AEF5E
:1010600054E482D106D37093D7006093D60061E038
:1010700085E391E01ED983708330F1F062E185E36E
:1010800091E017D983FF03C068E082E91DD861E8C9
:1010900081E81AD810924401109243016DE185E372
:1010A00091E007D9682F6E7F8DE90ED860E08DE85A
:1010B0000BD860E082EA08D81A8219821C821B824F
:1010C0001E821D8267E270E0CE0101961FDD29813C
:1010D0003A8181116AC02115310511F0C90191D3FE
:1010E0001A8219821E821D821C821B826091DA0084
:1010F0007091DB00CE01019660DD64EA70E0CE0104
:1011000001962BDD6091DC007091DD00CE0101962F
:1011100054DD62EB70E0CE0101961FDD6091DE00D0
:101120007091DF00CE01019648DD6EEB70E0CE01DC
:10113000019613DD6091D6007091D700CE01019623
:101140003CDD67EC70E0CE01019607DD10E000E0C9
:1011500089819A812D813E810217130778F560E01D
:10116000009721F0800F911FFC01608185E391E0E1
:101170001CD90F5F1F4FECCFFFCF60E070E08EEF08
:1011800092ECD5CE0F5F11091093DF000093DE00C3
:10119000EDCE60E070E08EEF92ECFFCE0F5F1109B4
:1011A0001093DD000093DC0017CF87E290E09E8370
:1011B0008D836CE770E0C9016CD498CF22D363E8CB
:1011C00081E882D762E185E391E073D883FFFACFAB
:1011D00068E082E979D760E881E876D71092DF008D
:1011E0001092DE001092D9001092D80086B186B914
:1011F0002091E9003091EA002A30310524F5822F50
:1012000087702830310504F5806194B7977F94BFCB
:1012100091B5986191BD81BD81B5806481BD85B76F
:10122000877E806185BF85B7806285BF789485B7EA
:10123000806285BF889585B78F7D85BF85B78F7D97
:1012400085BF379A5DCE81E08062DECFBB27FB0190
:101250005527AA27880F991FAA1FA41710F0A41BAF
:1012600083955051B9F7A05DAA3308F0A95DA19309
:10127000009779F7B111B1931192CB0100C0DC0155
:10128000FC01672F71917723E1F7329704C07C91BD
:101290006D9370836291AE17BF07C8F3089540D075
:1012A00008F481E00895E89409C097FB3EF4909516
:1012B0008095709561957F4F8F4F9F4F9923A9F02F
:1012C000F92F96E9BB279395F695879577956795BE
:1012D000B795F111F8CFFAF4BB0F11F460FF1BC002
:1012E0006F5F7F4F8F4F9F4F16C0882311F096E995
:1012F00011C0772321F09EE8872F762F05C0662343
:1013000071F096E8862F70E060E02AF09A95660FFB
:10131000771F881FDAF7880F9695879597F90895B4
:10132000990F0008550FAA0BE0E8FEEF16161706F6
:10133000E807F907C0F012161306E407F50798F05E
:10134000621B730B840B950B39F40A2661F0232B77
:10135000242B252B21F408950A2609F4A140A695F3
:101360008FEF811D811D08950AD080C071D028F0B3
:1013700076D018F0952309F062C067C0ABC087D063
:10138000A8F39923D9F35523C9F3950F50E0551FBE
:10139000AA27EE27FF27BB2700240894679520F48F
:1013A000E20FF31FB41F0A1E220F331F441FAA1F90
:1013B0006695A9F7779530F4F30FB41F0A1E121E35
:1013C00008F46395330F441FAA1F221F769599F7DF
:1013D000879520F4B40F0A1E121E631F440FAA1F24
:1013E000221F331F8695A9F7862F712D602D11249A
:1013F0009F5750408AF0E1F088234AF0EE0FFF1F1C
:10140000BB1F661F771F881F91505040A9F79E3F52
:10141000510570F014C05EC05F3FECF3983EDCF302
:10142000869577956795B795F795E7959F5FC1F78F
:10143000FE2B880F911D9695879597F9089597F93A
:101440009F6780E870E060E008959FEF80EC08956A
:1014500000240A9416161706180609060895002493
:101460000A9412161306140605060895092E03940D
:10147000000C11F4882352F0BB0F40F4BF2B11F481
:1014800060FF04C06F5F7F4F8F4F9F4F089557FDE0
:101490009058440F551F59F05F3F71F04795880FE2
:1014A00097FB991F61F09F3F79F087950895121679
:1014B00013061406551FF2CF4695F1DF08C0161625
:1014C00017061806991FF1CF8695710561050894D6
:1014D0000895E894BB2766277727CB0197F90895ED
:1014E0002F923F924F925F926F927F928F929F9234
:1014F000AF92BF92CF92DF92EF92FF920F931F9322
:10150000CF93DF93CDB7DEB7CA1BDB0B0FB6F894D2
:10151000DEBF0FBECDBF09942A88398848885F8412
:101520006E847D848C849B84AA84B984C884DF8083
:10153000EE80FD800C811B81AA81B981CE0FD11D67
:101540000FB6F894DEBF0FBECDBFED01089597FB37
:10155000072E16F4009406D077FD08D00BD007FCB8
:1015600005D03EF4909581959F4F089570956195B3
:101570007F4F0895AA1BBB1B51E107C0AA1FBB1FC9
:10158000A617B70710F0A61BB70B881F991F5A950F
:10159000A9F780959095BC01CD010895EE0FFF1F2E
:1015A0000590F491E02D09945058BB27AA270ED03E
:1015B0005DCF4EDF30F053DF20F031F49F3F11F468
:1015C0001EF443CF0EF4E095E7FB39CFE92F5FDF40
:1015D00080F3BA17620773078407950718F071F450
:1015E0009EF577CF0EF4E0950B2EBA2FA02D0B01B0
:1015F000B90190010C01CA01A0011124FF27591B58
:1016000099F0593F50F4503E68F11A16F040A22F5D
:10161000232F342F4427585FF3CF469537952795CE
:10162000A795F0405395C9F77EF41F16BA0B620BCD
:10163000730B840BBAF09150A1F0FF0FBB1F661F14
:10164000771F881FC2F70EC0BA0F621F731F841F57
:1016500048F4879577956795B795F7959E3F08F07D
:10166000B3CF9395880F08F09927EE0F979587953C
:10167000089515DF88F09F5790F0B92F9927B7513B
:10168000A0F0D1F0660F771F881F991F1AF0BA9546
:10169000C9F712C0B13081F01CDFB1E0089519CF55
:1016A000672F782F8827B85F39F0B93FCCF386953C
:1016B00077956795B395D9F73EF490958095709599
:1016C00061957F4F8F4F9F4F08950F931F93CF9337
:1016D000DF938230910510F482E090E0E0914F01B9
:1016E000F091500130E020E0B0E0A0E0309799F4B4
:1016F0002115310509F44AC0281B390B2430310566
:10170000D8F58A819B816115710589F1FB0193836D
:101710008283FE0111C040815181028113814817EB
:101720005907E0F04817590799F4109761F012969D
:101730000C93129713961C933296CF01DF91CF91A1
:101740001F910F91089500934F0110935001F4CF12
:101750002115310551F04217530738F0A901DB017B
:101760009A01BD01DF01F801C1CFEF01F9CF9093DC
:10177000500180934F01CDCFFE01E20FF31F819303
:1017800091932250310939832883D7CF20914D017D
:1017900030914E01232B41F420916200309163007F
:1017A00030934E0120934D012091600030916100F3
:1017B0002115310541F42DB73EB740916400509199
:1017C0006500241B350BE0914D01F0914E01E217AD
:1017D000F307A0F42E1B3F0B2817390778F0AC0154
:1017E0004E5F5F4F2417350748F04E0F5F1F509331
:1017F0004E0140934D01819391939FCFF0E0E0E043
:101800009CCFCF93DF930097E9F0FC0132971382CE
:101810001282A0914F01B0915001ED0130E020E023
:101820001097A1F420813181820F931F20914D01E7
:1018300030914E012817390709F061C0F0934E012D
:10184000E0934D01DF91CF910895EA01CE17DF07B4
:10185000E8F54A815B819E0141155105B1F7E90127
:10186000FB83EA8349915991C40FD51FEC17FD07FB
:1018700061F4808191810296840F951FE90199831B
:101880008883828193819B838A83F0E0E0E01296D3
:101890008D919C9113970097B9F52D913C911197DB
:1018A000CD010296820F931F20914D0130914E0180
:1018B0002817390739F6309751F5109250011092D8
:1018C0004F01B0934E01A0934D01BCCFD383C2838F
:1018D00040815181840F951FC817D90761F44E5F6D
:1018E0005F4F88819981480F591F518340838A81B6
:1018F0009B81938382832115310509F0B0CFF0934A
:101900005001E0934F019ECFFD01DC01C0CF138257
:101910001282D7CFB0E0A0E0EFE8FCE0E3CD8C018D
:10192000009741F4CB01D1DE8C01C801CDB7DEB701
:10193000E0E1F4CDFC01E60FF71F9C0122503109D4
:10194000E217F30708F499C0D901CD91DC91119702
:10195000C617D70790F0C530D10538F3CE010497EC
:101960008617970710F3C61BD70B2297C193D19305
:101970006D937C93CF0145DFD8CF5B01AC1ABD0AD4
:101980004C018C0E9D1EA0914F01B0915001512C25
:10199000412CF12CE12C109731F580914D01909163
:1019A0004E018815990509F05CC04616570608F0E7
:1019B00058C08091600090916100009741F48DB70C
:1019C0009EB74091640050916500841B950BE81709
:1019D000F90708F052C0F0934E01E0934D01F90170
:1019E00071836083A2CF8D919C91119712966C9018
:1019F000129713967C901397A815B90559F56C01A9
:101A000042E0C40ED11CCA14DB0420F1AC014A1917
:101A10005B09DA011296159780F062827382518316
:101A20004083D9016D937C93E114F10471F0D701E7
:101A30001396FC93EE93129778CF22968C0F9D1FEE
:101A4000F90191838083F301EFCFF0935001E0938C
:101A50004F016BCF4816590608F42C017D01D301C4
:101A60009ACFCB0132DE7C01009739F0AE01B8018C
:101A700007D0C801C6DE870158CF10E000E055CF7F
:101A8000FB01DC0102C001900D9241505040D8F79B
:101A90000895FB01DC0101900D920020E1F708950B
:041AA000F894FFCFE8
:101AA4000000510180005E00BC00770100000000CE
:101AB400D501A40197017D015D015C017B22536581
:101AC4006E736F72223A22426F696C6572222C2205
:101AD4004944223A31323334353637382C226D7347
:101AE40067223A002C22776174657254656D702206
:101AF4003A002C2261697254656D70223A002C22DE
:101B040056426174223A002C2252535349223A22FB
:061B1400787878227D00C4
:00000001FF
