:1000000037C05BC05AC059C0B6C657C056C055C0ED
:1000100054C053C052C065C650C04FC04EC04DC042
:100020004CC0005EBCE2613FDD83C29C7E20A3FD2C
:100030001F41009D23BE46DB65F88C11AF32CA57C5
:10004000E974000001020304000000000000000049
:10005000003B00380002020201010101010101011F
:100060000201020480402010080402010800C506B5
:1000700011241FBECFE5D2E0DEBFCDBF21E0A6EE4A
:10008000B0E001C01D92AC33B207E1F710E0A0E68A
:10009000B0E0E4E3FBE102C005900D92A63EB1079B
:1000A000D9F710E0C8E3D0E003C02197FE01BEDA23
:1000B000C733D107D1F7C0D63BCDA2CFC2988FB9F5
:1000C00080E48EB98BE1769902C08DB9FCCF8FB1F7
:1000D0006FB980E48EB98BE1769902C08DB9FCCFFF
:1000E0008FB1C29A08953FB7F8948091F100909132
:1000F000F200A091F300B091F40022B708B600FE20
:1001000005C02F3F19F00196A11DB11D3FBFBA2FA9
:10011000A92F982F8827BC01CD01620F711D811D69
:10012000911D43E0660F771F881F991F4A95D1F7ED
:100130000895CF92DF92EF92FF92CF93DF936B01FE
:100140007C01D1DFEB01C114D104E104F10441F4DD
:1001500012C081E0C81AD108E108F108C851DC4F8B
:10016000C2DF6C1B7D0B683E734068F3C114D10481
:10017000E104F10471F7DF91CF91FF90EF90DF90F0
:10018000CF900895DC0180E0615090F09D91982718
:10019000E92FEF70F0E0EE5DFF4F2491E92FE2953B
:1001A000EF70F0E0EE5CFF4FE491822F8E27ECCFF2
:1001B0000895DC012C911196ED91FC91F8948181C8
:1001C000822B81839281322F30959323928382E018
:1001D00090E00197F1F781818323818380E190E0B2
:1001E0000197F1F790817894E6E6F0E03197F1F726
:1001F000922381E009F480E00895FC019081018060
:10020000F281E02D292F209560FF14C0F89482819F
:10021000822382838181892B8183A0E1B0E01197C1
:10022000F1F78281982B928378948AE690E0019787
:10023000F1F70895F8948281822382838181892B4A
:100240008183AEE7B0E01197F1F78281982B92831A
:10025000789486E090E0EBCFDF92EF92FF920F93DD
:100260001F93CF93DF93EC01D62EE42E08E010E02D
:10027000FF24F39461E08D2D8F2109F460E0CE011D
:10028000BCDFFF0C01501109A9F7E11010C0F89470
:10029000E981FA8191818881809589238183E9812F
:1002A000FA81928188818095892382837894DF9175
:1002B000CF911F910F91FF90EF90DF900895EF92F3
:1002C000FF920F931F93CF93DF938C017B0140E04C
:1002D00065E5C2DFE70188E0E80EF11C699140E0C6
:1002E000C801BADFCE15DF05C9F7DF91CF911F91A5
:1002F0000F91FF90EF900895862F60E0DFCE089574
:100300001F93CF93DF93EC01E881F9810480F5819D
:10031000E02D0995892B89F06DE0CE01EDDF182FD6
:1003200060E0CE01E9DFC82F612F8DE8C7DE8C2F9A
:1003300090E0DF91CF911F9108958FEF9FEFF9CF5C
:10034000CF93DF93EC01E881F9810480F581E02D02
:100350000995892B61F08C859D8501969D878C87F9
:1003600060E0CE01C9DF90E0DF91CF9108958FEF7B
:100370009FEFFACFCF93DF93EC0163E1BDDF90E015
:100380002C853D85821B930BDF91CF910895CF92F1
:10039000DF92FF920F931F93CF93DF936B01EA01DC
:1003A00062E2AADFF82E90E09C012C0F3D1F2F3F48
:1003B000310529F020F0CFEFD0E0C81BD90B860122
:1003C000CC0EDD1E0C151D0531F0F80161918F0179
:1003D00080E874DEF7CF6C2F6F0D82EA6FDECE01FE
:1003E000DF91CF911F910F91FF90DF90CF900895F3
:1003F000CF93DF931F92CDB7DEB76983DC01ED9118
:10040000FC910280F381E02D41E050E0BE016F5F7E
:100410007F4F09950F90DF91CF91089587FF07C017
:10042000E82FEF778AE08E1BE83008F08FEF90E03E
:10043000FC01EE5BFF4F3491FC01EF59FF4F24911B
:10044000FC01EB5AFF4FE491EE23B9F0332329F07E
:100450003130A1F480B78F7780BFF0E0EE0FFF1F3F
:10046000E15BFF4FA591B4918FB7611117C0F8946C
:10047000EC9120952E232C938FBF0895323019F4E0
:1004800080B78F7DE9CF333021F48FB58F778FBD63
:10049000E4CF343011F78FB58F7DF9CFF894EC911C
:1004A0002E2BE9CFFC0190810180F281E02DF894A0
:1004B0008181292F20958223818378943DE73150D3
:1004C00011F180818923D9F3F89482818223828378
:1004D0008181892B81837894ACEBB3E01197F1F79C
:1004E000F894818182238183A8E8B0E01197F1F725
:1004F0008081982381E009F080E07894E0E3F3E0E4
:100500003197F1F7089580E008956F927F928F926E
:100510009F92AF92BF92CF92DF92EF92FF920F9392
:100520001F93CF93DF938C01EB0180910401909195
:100530000501B8DF8823D9F1B801809104019091B9
:100540000501BDDE40E06EEB809104019091050154
:1005500083DE7E016E0189E0C80ED11C8E01A09061
:100560000401B090050188E0882E912C712C66243E
:100570006394C5011EDE81117628660CE1E08E1AB7
:100580009108B9F7F80171928F01CE16DF0639F79D
:10059000809104019091050185DF813041F4F701DC
:1005A00081917F01811105C0E017F107C1F790E04B
:1005B00007C068E0CE01E6DD91E028852813F7CF7B
:1005C000892FDF91CF911F910F91FF90EF90DF90D6
:1005D000CF90BF90AF909F908F907F906F90089535
:1005E0000F931F93CF93DF93CDB7DEB729970FB645
:1005F000F894DEBF0FBECDBFFC012081203131F168
:100600008C01BE016F5F7F4F80DF882371F09D8179
:10061000F80180818B3311F497FD18C08AE09F3375
:1006200029F078F489E09F3109F080E029960FB62F
:10063000F894DEBF0FBECDBFDF91CF911F910F9118
:1006400008958BE09F3591F39F3779F78CE0EECFDB
:10065000CF92DF92EF92FF920F931F93CF93DF938E
:10066000CDB7DEB729970FB6F894DEBF0FBECDBF6A
:100670008C01BE016F5F7F4F48DF811105C060E0D4
:1006800070E08EEF92EC46C02A8160E070E0CB0112
:1006900027FF04C060E070E088EF9FEFF801408121
:1006A000C9804B3309F045C03D8137FF42C0C0FCD3
:1006B000E6CFD12CF12CE12CF3E0CC0CDD1CEE1CB0
:1006C000FF1CFA95D1F7F0EECF22F7E0DF22EE24FF
:1006D000FF24022F10E030E020E0ABE0000F111FFC
:1006E000221F331FAA95D1F70C291D292E293F2936
:1006F000602B712B822B932B613854EE75075FEFC3
:10070000850795070CF4BBCF18D620E030E040E019
:100710005CE372D629960FB6F894DEBF0FBECDBF4C
:10072000DF91CF911F910F91FF90EF90DF90CF90CD
:100730000895022F10E0102F0027110F110F110F35
:10074000D12CE3E0CC0CDD1CEA95E1F70C291D2946
:10075000012E000C220B330B602B712B822B932B61
:10076000403151F64885442339F28B019C0183E0E6
:10077000000F111F221F331F8A95D1F700782770B1
:1007800033270052110921093109642F70E08F814C
:10079000AB01481B5109CA019695982F8827979558
:1007A00087951DD7072E000C880B990B600F711FC2
:1007B000821F931FA1CFBF92CF92DF92EF92FF9241
:1007C0000F931F93CF93DF93EC01B62EC72E8D8529
:1007D000811104C0CE0166DE81110EC01B861D860C
:1007E0001C8680E0DF91CF911F910F91FF90EF90D9
:1007F000DF90CF90BF90089540E060EFCE012CDDF8
:1008000001E0E12CD12C11E0CE01D3DCF82ECE0199
:10081000D0DC91E0F91218C0813099F51134F0F272
:10082000DB86D11002C081E08D878B818823B1F2F5
:100830002396EB2DFC2DCF01089629912193E817E3
:10084000F907D9F781E0CECFEE2DF0E0F8120FC016
:100850008B851817A0F4DE01AE0FBF1F13968C9185
:10086000802379F4F12C193008F41C87D12EEC0F79
:10087000FD1F8381902F9095892383830AC0811364
:10088000F1CFFE01EE0DF11D8381802B8383FF24C8
:10089000F3946F2DCE01B1DC1F5F000F11F4E394D0
:1008A00001E087E08E1508F0AFCFB8CFEF92FF924E
:1008B0000F931F93CF93DF93CDB7DEB729970FB672
:1008C000F894DEBF0FBECDBF8C01FC018081FF24F8
:1008D000F394803109F469C0BE016F5F7F4FC80196
:1008E00014DEF82E882309F460C08D81F801908110
:1008F0009B3311F487FD59C08F3709F456C08FE739
:100900008D838091040190910501CCDDB801809127
:10091000040190910501D3DC40E06EE48091040174
:100920009091050199DC40E06B81809104019091E8
:10093000050192DC40E06C818091040190910501F9
:100940008BDCF8018081803139F040E06D8180914D
:1009500004019091050180DCE09001018091040187
:1009600090910501EE2009F473C09CDD8823E9F025
:10097000B8018091040190910501A1DC4091FB0038
:1009800068E4809104019091050166DC8091FB0090
:10099000811147C064E170E080E090E0CADB8091A3
:1009A0000401909105017EDDFE2C8CE08093FE0019
:1009B00080910201823008F44DC0E0910401F09171
:1009C00005011386158614861286118610861782F5
:1009D000168215821482138210E08091020118178A
:1009E000C8F58091FE008C30A9F1BE016F5F7F4F8A
:1009F0008091040190910501DEDE882381F067E09B
:100A0000CE010196BFDB9885891309C0CE010196FE
:100A1000E7DD9091FE00981710F48093FE001F5FB1
:100A2000DCCF8091FC00882321F060E08091FD0004
:100A3000F5DC64E170E080E090E07BDB8091FC001D
:100A4000882309F4ACCF61E08091FD00E7DCA7CFFB
:100A500029DDABCF8F2D29960FB6F894DEBF0FBEE0
:100A6000CDBFDF91CF911F910F91FF90EF9008952F
:100A70008F929F92AF92BF92CF92DF92EF92FF92AE
:100A8000CF93DF9300D000D01F92CDB7DEB7809117
:100A900004019091050106DD40E06CEC80910401B9
:100AA00090910501D9DB4091FB0064E48091040141
:100AB00090910501D1DB8FB7F894C090F500D090EC
:100AC000F600E090F700F090F8008FBF8091FF00F3
:100AD00081111EC081E08983CA82DB82EC82FD82A3
:100AE00029813A814B815C816D8170E080E090E0EA
:100AF0000F900F900F900F900F90DF91CF91FF907C
:100B0000EF90DF90CF90BF90AF909F908F9008951F
:100B100080910001882301F18091FB0081111CC0AC
:100B2000809104019091050144DB813099F22FB747
:100B3000F8948091F5009091F600A091F700B091A3
:100B4000F8002FBF8C199D09AE09BF098E3E924057
:100B5000A105B10528F3BECFE091FE00E9508EEE6D
:100B600092E0E33038F4F0E0EE0FFF1FEA58FF4F59
:100B7000808191814C01B12CA12C8091FC008823B3
:100B800021F060E08091FD0049DCC501B401D1DABB
:100B90008091FC00882309F49DCF61E08091FD00E5
:100BA0003DDC98CF0F931F93CF93DF93EC018881A7
:100BB0009981009759F02A813B812617370730F039
:100BC00081E0DF91CF911F910F9108958B016F5FAD
:100BD0007F4FE8D6009759F0998388831B830A8357
:100BE0002C813D81232B61F7FC011082E9CF80E04D
:100BF000E8CFEF92FF920F931F93CF93DF93FB0108
:100C000001900020E9F73197E61BF70BD1F07B014B
:100C10008C01DC011496CD91DC91CE0FDF1FBE015B
:100C2000C1DF882379F0F8012081318184819581A9
:100C3000B701820F931F75D7D8011596DC93CE9319
:100C4000149781E0DF91CF911F910F91FF90EF906A
:100C50000895CF92DF92EF92FF920F931F93CF935D
:100C6000DF9300D000D000D01F92CDB7DEB77C015B
:100C7000CB014AE09E012F5F3F4F6901B9012ED39E
:100C8000F60101900020E9F73197EC19FD09C9F050
:100C9000D70114960D911C910E0F1F1FB801C701AB
:100CA00081DF882379F0F70120813181848195816A
:100CB000B601820F931F35D7D70115961C930E935B
:100CC000149781E027960FB6F894DEBF0FBECDBF14
:100CD000DF91CF911F910F91FF90EF90DF90CF9018
:100CE00008951F920F920FB60F9211242F933F93E6
:100CF0008F939F93AF93BF938091F5009091F600EF
:100D0000A091F700B091F8003091F00026E0230F99
:100D10002D3768F129E8230F0396A11DB11D2093FB
:100D2000F0008093F5009093F600A093F700B09345
:100D3000F8008091F1009091F200A091F300B09141
:100D4000F4000196A11DB11D8093F1009093F20073
:100D5000A093F300B093F400BF91AF919F918F9156
:100D60003F912F910F900FBE0F901F9018950296F4
:100D7000A11DB11DD4CF1F920F920FB60F92112457
:100D80000F900FBE0F901F9018958FB7F894B898DA
:100D9000C0988FBFE2E1F1E081E0808326E330E09C
:100DA0003283218313861586148612861186108657
:100DB00017821682158214821382ABEFB0E056962A
:100DC0001C921E92559711961C9211971A96FC939D
:100DD000EE93199717961C92179718961C921897CE
:100DE0001C9299E013969C93139714968C931497E6
:100DF00015968C93159716968C9385E090E09093BA
:100E0000FA008093F900E0E2F1E01382128280E8B8
:100E100090E0918380831586148617861686108A43
:100E2000118A128A138A158A148A178A168A1482DA
:100E30001582168217820895CF93DF93CDB7DEB760
:100E400062970FB6F894DEBF0FBECDBF83E080BFC0
:100E500083BF789499B7916099BF91E09FBD8EBD93
:100E600086E886B9E0910401F091050113861586A4
:100E700014861286118610861782168215821482B5
:100E80001382109202011092030111E0BE016F5F04
:100E90007F4F80910401909105018DDC882309F436
:100EA00051C067E0CE0101966DD998858913EECFC8
:100EB000809102018F5F809302018981883229F03D
:100EC000D8F5803111F0823209F7809103018F5FEC
:100ED000809303018091FB00811123C08091040164
:100EE00090910501DFDABE016F5F7F4F80910401B1
:100EF00090910501E4D940E064EB80910401909168
:100F00000501AAD9809104019091050152D9082FB9
:100F10008091040190910501C5DA011102C010937E
:100F2000FB00CE0101965CDB9091FE00981708F063
:100F3000ADCF8093FE00AACF8B3339F2823409F013
:100F4000A5CFC3CF88E690E0B1DC80E690E0AEDCD0
:100F5000D49AD59AD698BA9A62E480E291E0CCD934
:100F6000823109F057C160E881E8A8D880E09FE9A4
:100F7000AEE8B8E18093300190933101A093320143
:100F8000B093330167E686E899D860E087E896D8A1
:100F900060E088E893D860E08EE890D860E08FE861
:100FA0008DD86CE080E291E0A7D9682F63608CE86F
:100FB00085D864E086EA82D864E88DEC7FD86BE25D
:100FC0008BE87CD86FE889E879D861E881E876D841
:100FD00043E0F42E4DDD29873A874B875C876D8788
:100FE00088E690E035DB20E030E048EC52E404D2C3
:100FF0004B015C010091EE001091EF0020E030E029
:101000004EEF52EC94D1882309F405C1B80190E069
:1010100080E091D1A501940110D373D37093EF00B8
:101020006093EE0025DD2E873F87488B598B6A8BB6
:1010300080E690E00DDB20E030E048EC52E4DCD1CB
:101040004B015C010091EC001091ED0020E030E0DC
:101050004EEF52EC6CD1882309F4E4C0B80190E063
:1010600080E069D1A5019401E8D24BD37093ED00E3
:101070006093EC008091EA009091EB0001969093D0
:10108000EB008093EA008091E8009091E9000196DE
:101090009093E9008093E800089709F0EFC08091F1
:1010A000EE009091EF0023E0969587952A95E1F761
:1010B0009093EF008093EE008091EC009091ED0012
:1010C00033E0969587953A95E1F79093ED008093FC
:1010D000EC00F7B8369A3699FECF84B165B1762F19
:1010E000682F072E000C880B990B27D12DE038E6CE
:1010F00043E55BE381D120E030E04AEF54E47CD16A
:1011000000D37093E7006093E60061E080E291E035
:10111000F3D883708330F1F062E180E291E0ECD8A3
:1011200083FF03C068E082E9C9D761E881E8C6D7D8
:1011300010922F0110922E016DE180E291E0DCD837
:10114000682F6E7F8DE9BAD760E08DE8B7D760E091
:1011500082EAB4D71A8219821C821B821E821D82E7
:1011600067E270E0CE0101961DDD29813A8181118F
:1011700060C02115310511F0C9018BD31A82198283
:101180001E821D821C821B826091EA007091EB001E
:10119000CE0101965EDD64EB70E0CE01019629DDA3
:1011A0006091EC007091ED00CE01019652DD62EC91
:1011B00070E0CE0101961DDD6091EE007091EF00B0
:1011C000CE01019646DD6EEC70E0CE01019611DD98
:1011D0006091E6007091E700CE0101963ADD67ED7F
:1011E00070E0CE01019605DD10E000E089819A8172
:1011F0002D813E810217130728F560E0009721F04A
:10120000800F911FFC01608180E291E0F1D80F5FB7
:101210001F4FECCFFFCF0F5F11091093EF0000932A
:10122000EE0000CF0F5F11091093ED000093EC006A
:1012300021CF87E290E09E838D836CE870E0C90146
:1012400070D4A2CF26D363E881E838D762E180E288
:1012500091E052D883FFFACF68E082E92FD760E8A7
:1012600081E82CD71092EF001092EE001092ED0062
:101270001092EC001092E9001092E80086B186B955
:101280002091F9003091FA002A30310524F5822F9F
:1012900087702830310504F5806194B7977F94BF3B
:1012A00091B5986191BD81BD81B5806481BD85B7DF
:1012B000877E806185BF85B7806285BF789485B75A
:1012C000806285BF889585B78F7D85BF85B78F7D07
:1012D00085BF379A7FCE81E08062DECFBB27FB01DE
:1012E0005527AA27880F991FAA1FA41710F0A41B1F
:1012F00083955051B9F7A05DAA3308F0A95DA19379
:10130000009779F7B111B1931192CB0100C0DC01C4
:10131000FC01672F71917723E1F7329704C07C912C
:101320006D9370836291AE17BF07C8F3089540D0E4
:1013300008F481E00895E89409C097FB3EF4909585
:101340008095709561957F4F8F4F9F4F9923A9F09E
:10135000F92F96E9BB279395F6958795779567952D
:10136000B795F111F8CFFAF4BB0F11F460FF1BC071
:101370006F5F7F4F8F4F9F4F16C0882311F096E904
:1013800011C0772321F09EE8872F762F05C06623B2
:1013900071F096E8862F70E060E02AF09A95660F6B
:1013A000771F881FDAF7880F9695879597F9089524
:1013B000990F0008550FAA0BE0E8FEEF1616170666
:1013C000E807F907C0F012161306E407F50798F0CE
:1013D000621B730B840B950B39F40A2661F0232BE7
:1013E000242B252B21F408950A2609F4A140A69563
:1013F0008FEF811D811D08950AD080C071D028F023
:1014000076D018F0952309F062C067C0ABC087D0D2
:10141000A8F39923D9F35523C9F3950F50E0551F2D
:10142000AA27EE27FF27BB2700240894679520F4FE
:10143000E20FF31FB41F0A1E220F331F441FAA1FFF
:101440006695A9F7779530F4F30FB41F0A1E121EA4
:1014500008F46395330F441FAA1F221F769599F74E
:10146000879520F4B40F0A1E121E631F440FAA1F93
:10147000221F331F8695A9F7862F712D602D112409
:101480009F5750408AF0E1F088234AF0EE0FFF1F8B
:10149000BB1F661F771F881F91505040A9F79E3FC2
:1014A000510570F014C05EC05F3FECF3983EDCF372
:1014B000869577956795B795F795E7959F5FC1F7FF
:1014C000FE2B880F911D9695879597F9089597F9AA
:1014D0009F6780E870E060E008959FEF80EC0895DA
:1014E00000240A9416161706180609060895002403
:1014F0000A9412161306140605060895092E03947D
:10150000000C11F4882352F0BB0F40F4BF2B11F4F0
:1015100060FF04C06F5F7F4F8F4F9F4F089557FD4F
:101520009058440F551F59F05F3F71F04795880F51
:1015300097FB991F61F09F3F79F0879508951216E8
:1015400013061406551FF2CF4695F1DF08C0161694
:1015500017061806991FF1CF869571056105089445
:101560000895E894BB2766277727CB0197F908955C
:101570002F923F924F925F926F927F928F929F92A3
:10158000AF92BF92CF92DF92EF92FF920F931F9391
:10159000CF93DF93CDB7DEB7CA1BDB0B0FB6F89442
:1015A000DEBF0FBECDBF09942A88398848885F8482
:1015B0006E847D848C849B84AA84B984C884DF80F3
:1015C000EE80FD800C811B81AA81B981CE0FD11DD7
:1015D0000FB6F894DEBF0FBECDBFED01089597FBA7
:1015E000072E16F4009406D077FD08D00BD007FC28
:1015F00005D03EF4909581959F4F08957095619523
:101600007F4F0895AA1BBB1B51E107C0AA1FBB1F38
:10161000A617B70710F0A61BB70B881F991F5A957E
:10162000A9F780959095BC01CD010895EE0FFF1F9D
:101630000590F491E02D09945058BB27AA270ED0AD
:101640005DCF4EDF30F053DF20F031F49F3F11F4D7
:101650001EF443CF0EF4E095E7FB39CFE92F5FDFAF
:1016600080F3BA17620773078407950718F071F4BF
:101670009EF577CF0EF4E0950B2EBA2FA02D0B011F
:10168000B90190010C01CA01A0011124FF27591BC7
:1016900099F0593F50F4503E68F11A16F040A22FCD
:1016A000232F342F4427585FF3CF4695379527953E
:1016B000A795F0405395C9F77EF41F16BA0B620B3D
:1016C000730B840BBAF09150A1F0FF0FBB1F661F84
:1016D000771F881FC2F70EC0BA0F621F731F841FC7
:1016E00048F4879577956795B795F7959E3F08F0ED
:1016F000B3CF9395880F08F09927EE0F97958795AC
:10170000089515DF88F09F5790F0B92F9927B751AA
:10171000A0F0D1F0660F771F881F991F1AF0BA95B5
:10172000C9F712C0B13081F01CDFB1E0089519CFC4
:10173000672F782F8827B85F39F0B93FCCF38695AB
:1017400077956795B395D9F73EF490958095709508
:1017500061957F4F8F4F9F4F08950F931F93CF93A6
:10176000DF938230910510F482E090E0E0913A013D
:10177000F0913B0130E020E0B0E0A0E0309799F438
:101780002115310509F44AC0281B390B24303105D5
:10179000D8F58A819B816115710589F1FB019383DD
:1017A0008283FE0111C0408151810281138148175B
:1017B0005907E0F04817590799F4109761F012960D
:1017C0000C93129713961C933296CF01DF91CF9111
:1017D0001F910F91089500933A0110933B01F4CFAC
:1017E0002115310551F04217530738F0A901DB01EB
:1017F0009A01BD01DF01F801C1CFEF01F9CF90934C
:101800003B0180933A01CDCFFE01E20FF31F81939C
:1018100091932250310939832883D7CF2091380101
:1018200030913901232B41F42091720030917300E3
:10183000309339012093380120917000309171006C
:101840002115310541F42DB73EB7409174005091F8
:101850007500241B350BE0913801F0913901E21736
:10186000F307A0F42E1B3F0B2817390778F0AC01C3
:101870004E5F5F4F2417350748F04E0F5F1F5093A0
:10188000390140933801819391939FCFF0E0E0E0DC
:101890009CCFCF93DF930097E9F0FC01329713823E
:1018A0001282A0913A01B0913B01ED0130E020E0BD
:1018B0001097A1F420813181820F931F209138016C
:1018C000309139012817390709F061C0F0933901C7
:1018D000E0933801DF91CF910895EA01CE17DF0739
:1018E000E8F54A815B819E0141155105B1F7E90197
:1018F000FB83EA8349915991C40FD51FEC17FD076B
:1019000061F4808191810296840F951FE90199838A
:101910008883828193819B838A83F0E0E0E0129642
:101920008D919C9113970097B9F52D913C9111974A
:10193000CD010296820F931F209138013091390119
:101940002817390739F6309751F510923B0110925C
:101950003A01B0933901A0933801BCCFD383C2833D
:1019600040815181840F951FC817D90761F44E5FDC
:101970005F4F88819981480F591F518340838A8125
:101980009B81938382832115310509F0B0CFF093B9
:101990003B01E0933A019ECFFD01DC01C0CF1382F1
:1019A0001282D7CFB0E0A0E0E7EDFCE0E3CD8C0100
:1019B000009741F4CB01D1DE8C01C801CDB7DEB771
:1019C000E0E1F4CDFC01E60FF71F9C012250310944
:1019D000E217F30708F499C0D901CD91DC91119772
:1019E000C617D70790F0C530D10538F3CE0104975C
:1019F0008617970710F3C61BD70B2297C193D19375
:101A00006D937C93CF0145DFD8CF5B01AC1ABD0A43
:101A10004C018C0E9D1EA0913A01B0913B01512CBE
:101A2000412CF12CE12C109731F5809138019091E7
:101A300039018815990509F05CC04616570608F06B
:101A400058C08091700090917100009741F48DB75B
:101A50009EB74091740050917500841B950BE81758
:101A6000F90708F052C0F0933901E0933801F90109
:101A700071836083A2CF8D919C91119712966C9087
:101A8000129713967C901397A815B90559F56C0118
:101A900042E0C40ED11CCA14DB0420F1AC014A1987
:101AA0005B09DA011296159780F062827382518386
:101AB0004083D9016D937C93E114F10471F0D70157
:101AC0001396FC93EE93129778CF22968C0F9D1F5E
:101AD000F90191838083F301EFCFF0933B01E09311
:101AE0003A016BCF4816590608F42C017D01D30149
:101AF0009ACFCB0132DE7C01009739F0AE01B801FC
:101B000007D0C801C6DE870158CF10E000E055CFEE
:101B1000FB01DC0102C001900D9241505040D8F70A
:101B20000895FB01DC0101900D920020E1F708957A
:041B3000F894FFCF57
:101B340028E022949707037D28A26997940403C69A
:101B440000003C0180005E00BC0077010000000042
:101B5400F801C701BA01A00180017F017B2253650E
:101B64006E736F72223A22426F696C6572222C2264
:101B74004944223A31323334353637382C226D73A6
:101B840067223A002C22776174657254656D702265
:101B94003A002C2261697254656D70223A002C223D
:101BA40056426174223A002C2252535349223A225B
:061BB400787878227D0024
:00000001FF
